{
  "contractName": "Intel",
  "abi": [
    {
      "constant": true,
      "inputs": [],
      "name": "owner",
      "outputs": [
        {
          "name": "",
          "type": "address"
        }
      ],
      "payable": false,
      "stateMutability": "view",
      "type": "function"
    },
    {
      "constant": true,
      "inputs": [
        {
          "name": "",
          "type": "address"
        },
        {
          "name": "",
          "type": "uint256"
        }
      ],
      "name": "IntelsByProvider",
      "outputs": [
        {
          "name": "intelProvider",
          "type": "address"
        },
        {
          "name": "depositAmount",
          "type": "uint256"
        },
        {
          "name": "desiredReward",
          "type": "uint256"
        },
        {
          "name": "balance",
          "type": "uint256"
        },
        {
          "name": "intelID",
          "type": "uint256"
        },
        {
          "name": "rewardAfter",
          "type": "uint256"
        },
        {
          "name": "rewarded",
          "type": "bool"
        }
      ],
      "payable": false,
      "stateMutability": "view",
      "type": "function"
    },
    {
      "constant": true,
      "inputs": [],
      "name": "ParetoAddress",
      "outputs": [
        {
          "name": "",
          "type": "address"
        }
      ],
      "payable": false,
      "stateMutability": "view",
      "type": "function"
    },
    {
      "constant": true,
      "inputs": [],
      "name": "intelCount",
      "outputs": [
        {
          "name": "",
          "type": "uint256"
        }
      ],
      "payable": false,
      "stateMutability": "view",
      "type": "function"
    },
    {
      "constant": true,
      "inputs": [],
      "name": "token",
      "outputs": [
        {
          "name": "",
          "type": "address"
        }
      ],
      "payable": false,
      "stateMutability": "view",
      "type": "function"
    },
    {
      "inputs": [
        {
          "name": "_owner",
          "type": "address"
        }
      ],
      "payable": false,
      "stateMutability": "nonpayable",
      "type": "constructor"
    },
    {
      "payable": false,
      "stateMutability": "nonpayable",
      "type": "fallback"
    },
    {
      "anonymous": false,
      "inputs": [
        {
          "indexed": false,
          "name": "sender",
          "type": "address"
        },
        {
          "indexed": false,
          "name": "intelIndex",
          "type": "uint256"
        },
        {
          "indexed": false,
          "name": "rewardAmount",
          "type": "uint256"
        }
      ],
      "name": "Reward",
      "type": "event"
    },
    {
      "anonymous": false,
      "inputs": [
        {
          "indexed": false,
          "name": "intelProvider",
          "type": "address"
        },
        {
          "indexed": false,
          "name": "depositAmount",
          "type": "uint256"
        },
        {
          "indexed": false,
          "name": "desiredReward",
          "type": "uint256"
        },
        {
          "indexed": false,
          "name": "intelID",
          "type": "uint256"
        },
        {
          "indexed": false,
          "name": "ttl",
          "type": "uint256"
        }
      ],
      "name": "NewIntel",
      "type": "event"
    },
    {
      "anonymous": false,
      "inputs": [
        {
          "indexed": false,
          "name": "intelIndex",
          "type": "uint256"
        },
        {
          "indexed": false,
          "name": "provider_amount",
          "type": "uint256"
        },
        {
          "indexed": false,
          "name": "provider",
          "type": "address"
        },
        {
          "indexed": false,
          "name": "distributor",
          "type": "address"
        },
        {
          "indexed": false,
          "name": "distributor_amount",
          "type": "uint256"
        }
      ],
      "name": "RewardDistributed",
      "type": "event"
    },
    {
      "anonymous": false,
      "inputs": [
        {
          "indexed": false,
          "name": "destination",
          "type": "address"
        },
        {
          "indexed": false,
          "name": "account",
          "type": "address"
        },
        {
          "indexed": false,
          "name": "amount",
          "type": "uint256"
        },
        {
          "indexed": false,
          "name": "gasLimit",
          "type": "uint256"
        }
      ],
      "name": "LogProxy",
      "type": "event"
    },
    {
      "constant": false,
      "inputs": [
        {
          "name": "intelProvider",
          "type": "address"
        },
        {
          "name": "depositAmount",
          "type": "uint256"
        },
        {
          "name": "desiredReward",
          "type": "uint256"
        },
        {
          "name": "intelID",
          "type": "uint256"
        },
        {
          "name": "ttl",
          "type": "uint256"
        }
      ],
      "name": "create",
      "outputs": [],
      "payable": false,
      "stateMutability": "nonpayable",
      "type": "function"
    },
    {
      "constant": false,
      "inputs": [
        {
          "name": "intelIndex",
          "type": "uint256"
        },
        {
          "name": "rewardAmount",
          "type": "uint256"
        }
      ],
      "name": "sendReward",
      "outputs": [
        {
          "name": "success",
          "type": "bool"
        }
      ],
      "payable": false,
      "stateMutability": "nonpayable",
      "type": "function"
    },
    {
      "constant": false,
      "inputs": [
        {
          "name": "intelIndex",
          "type": "uint256"
        }
      ],
      "name": "distributeReward",
      "outputs": [
        {
          "name": "success",
          "type": "bool"
        }
      ],
      "payable": false,
      "stateMutability": "nonpayable",
      "type": "function"
    },
    {
      "constant": false,
      "inputs": [
        {
          "name": "_token",
          "type": "address"
        }
      ],
      "name": "setParetoToken",
      "outputs": [],
      "payable": false,
      "stateMutability": "nonpayable",
      "type": "function"
    },
    {
      "constant": false,
      "inputs": [
        {
          "name": "destination",
          "type": "address"
        },
        {
          "name": "account",
          "type": "address"
        },
        {
          "name": "amount",
          "type": "uint256"
        },
        {
          "name": "gasLimit",
          "type": "uint256"
        }
      ],
      "name": "proxy",
      "outputs": [],
      "payable": false,
      "stateMutability": "nonpayable",
      "type": "function"
    },
    {
      "constant": true,
      "inputs": [
        {
          "name": "intelIndex",
          "type": "uint256"
        }
      ],
      "name": "getIntel",
      "outputs": [
        {
          "name": "intelProvider",
          "type": "address"
        },
        {
          "name": "depositAmount",
          "type": "uint256"
        },
        {
          "name": "desiredReward",
          "type": "uint256"
        },
        {
          "name": "balance",
          "type": "uint256"
        },
        {
          "name": "intelID",
          "type": "uint256"
        },
        {
          "name": "rewardAfter",
          "type": "uint256"
        },
        {
          "name": "rewarded",
          "type": "bool"
        }
      ],
      "payable": false,
      "stateMutability": "view",
      "type": "function"
    },
    {
      "constant": true,
      "inputs": [],
      "name": "getAllIntel",
      "outputs": [
        {
          "name": "intelID",
          "type": "uint256[]"
        },
        {
          "name": "intelProvider",
          "type": "address[]"
        },
        {
          "name": "depositAmount",
          "type": "uint256[]"
        },
        {
          "name": "desiredReward",
          "type": "uint256[]"
        },
        {
          "name": "balance",
          "type": "uint256[]"
        },
        {
          "name": "rewardAfter",
          "type": "uint256[]"
        },
        {
          "name": "rewarded",
          "type": "bool[]"
        }
      ],
      "payable": false,
      "stateMutability": "view",
      "type": "function"
    },
    {
      "constant": true,
      "inputs": [
        {
          "name": "_provider",
          "type": "address"
        }
      ],
      "name": "getIntelsByProvider",
      "outputs": [
        {
          "name": "intelID",
          "type": "uint256[]"
        },
        {
          "name": "intelProvider",
          "type": "address[]"
        },
        {
          "name": "depositAmount",
          "type": "uint256[]"
        },
        {
          "name": "desiredReward",
          "type": "uint256[]"
        },
        {
          "name": "balance",
          "type": "uint256[]"
        },
        {
          "name": "rewardAfter",
          "type": "uint256[]"
        },
        {
          "name": "rewarded",
          "type": "bool[]"
        }
      ],
      "payable": false,
      "stateMutability": "view",
      "type": "function"
    },
    {
      "constant": true,
      "inputs": [
        {
          "name": "intelIndex",
          "type": "uint256"
        }
      ],
      "name": "contributionsByIntel",
      "outputs": [
        {
          "name": "addresses",
          "type": "address[]"
        },
        {
          "name": "amounts",
          "type": "uint256[]"
        }
      ],
      "payable": false,
      "stateMutability": "view",
      "type": "function"
    }
  ],
  "bytecode": "0x608060405234801561001057600080fd5b5060405160208061196f833981016040525160048054600160a060020a031916600160a060020a0390921691909117905561191f806100506000396000f3006080604052600436106100cf5763ffffffff7c01000000000000000000000000000000000000000000000000000000006000350416630c03348d81146100e1578063241de9e91461013d57806350e7dde21461016c57806376d438b01461018d5780638da5cb5b146101bc578063940a4e45146101ed5780639e1f307b14610205578063a3dc57c514610229578063ae5c37fd1461023e578063d6680a69146102ef578063db1fdb6c146104f6578063eb6443a31461051d578063f9b6b0c41461053e578063fc0c546a1461056b575b3480156100db57600080fd5b50600080fd5b3480156100ed57600080fd5b506100f9600435610580565b60408051600160a060020a0390981688526020880196909652868601949094526060860192909252608085015260a0840152151560c0830152519081900360e00190f35b34801561014957600080fd5b5061016a600160a060020a03600435811690602435166044356064356105c9565b005b34801561017857600080fd5b5061016a600160a060020a03600435166106ac565b34801561019957600080fd5b506101a86004356024356106fc565b604080519115158252519081900360200190f35b3480156101c857600080fd5b506101d16108e1565b60408051600160a060020a039092168252519081900360200190f35b3480156101f957600080fd5b506101a86004356108f0565b34801561021157600080fd5b506100f9600160a060020a0360043516602435610b29565b34801561023557600080fd5b506101d1610b8f565b34801561024a57600080fd5b50610256600435610b9e565b604051808060200180602001838103835285818151815260200191508051906020019060200280838360005b8381101561029a578181015183820152602001610282565b50505050905001838103825284818151815260200191508051906020019060200280838360005b838110156102d95781810151838201526020016102c1565b5050505090500194505050505060405180910390f35b3480156102fb57600080fd5b50610304610cd0565b604051808060200180602001806020018060200180602001806020018060200188810388528f818151815260200191508051906020019060200280838360005b8381101561035c578181015183820152602001610344565b5050505090500188810387528e818151815260200191508051906020019060200280838360005b8381101561039b578181015183820152602001610383565b5050505090500188810386528d818151815260200191508051906020019060200280838360005b838110156103da5781810151838201526020016103c2565b5050505090500188810385528c818151815260200191508051906020019060200280838360005b83811015610419578181015183820152602001610401565b5050505090500188810384528b818151815260200191508051906020019060200280838360005b83811015610458578181015183820152602001610440565b5050505090500188810383528a818151815260200191508051906020019060200280838360005b8381101561049757818101518382015260200161047f565b50505050905001888103825289818151815260200191508051906020019060200280838360005b838110156104d65781810151838201526020016104be565b505050509050019e50505050505050505050505050505060405180910390f35b34801561050257600080fd5b5061050b611064565b60408051918252519081900360200190f35b34801561052957600080fd5b50610304600160a060020a036004351661106a565b34801561054a57600080fd5b5061016a600160a060020a036004351660243560443560643560843561149c565b34801561057757600080fd5b506101d16117ae565b6000908152602081905260409020805460018201546002830154600384015460058501546004860154600690960154600160a060020a0390951696939592949193909160ff1690565b600454600090600160a060020a031633146105e357600080fd5b600654600160a060020a03868116911614156105fe57600080fd5b50604080517f7472616e7366657228616464726573732c75696e74323536290000000000000081529051908190036019018120808252600482018590526024820184905290600081604481838a88f18015600257505060408051600160a060020a038088168252861660208201528082018590526060810184905290517ff98ef40497804f379f0a160b3381df52f48fa65759dc2c30d798bcc4d39c3d289181900360800190a15050505050565b600454600160a060020a031633146106c357600080fd5b60058054600160a060020a0390921673ffffffffffffffffffffffffffffffffffffffff19928316811790915560068054909216179055565b60008281526020819052604081208054600160a060020a0316151561072057600080fd5b8054600160a060020a031633141561073757600080fd5b6005810154421061074757600080fd5b600681015460ff161561075957600080fd5b600554604080517f23b872dd000000000000000000000000000000000000000000000000000000008152336004820152306024820152604481018690529051600160a060020a03909216916323b872dd916064808201926020929091908290030181600087803b1580156107cc57600080fd5b505af11580156107e0573d6000803e3d6000fd5b505050506040513d60208110156107f657600080fd5b5050600381015461080d908463ffffffff6117bd16565b6003820155336000908152600882016020526040902054151561085f576007810180546001810182556000918252602090912001805473ffffffffffffffffffffffffffffffffffffffff1916331790555b336000908152600882016020526040902054610881908463ffffffff6117bd16565b33600081815260088401602090815260409182902093909355805191825291810186905280820185905290517f02a6a2be713fedf52f113c0a759f1c1a23a113476d9b1b1a2a453c910660de4e9181900360600190a15060019392505050565b600454600160a060020a031681565b600080808080851161090157600080fd5b6000858152602081905260409020600681015490935060ff161561092457600080fd5b600583015442101561093557600080fd5b60068301805460ff1916600117905560028301546003840154600093501115610964578260020154915061096c565b826003015491505b61097d82600a63ffffffff6117d316565b905061098f828263ffffffff6117ea16565b6005548454604080517fa9059cbb000000000000000000000000000000000000000000000000000000008152600160a060020a03928316600482015260248101859052905193955091169163a9059cbb916044808201926020929091908290030181600087803b158015610a0257600080fd5b505af1158015610a16573d6000803e3d6000fd5b505050506040513d6020811015610a2c57600080fd5b5050600554604080517fa9059cbb000000000000000000000000000000000000000000000000000000008152336004820152602481018490529051600160a060020a039092169163a9059cbb916044808201926020929091908290030181600087803b158015610a9b57600080fd5b505af1158015610aaf573d6000803e3d6000fd5b505050506040513d6020811015610ac557600080fd5b505082546040805187815260208101859052600160a060020a039092168282015233606083015260808201839052517f0f443ebb076bf07ea019d10d84e6ead9afdde7d7e212681229aaf250710d2cd79181900360a00190a1506001949350505050565b600160205281600052604060002081815481101515610b4457fe5b60009182526020909120600990910201805460018201546002830154600384015460048501546005860154600690960154600160a060020a0390951697509295509093909260ff1687565b600654600160a060020a031681565b6000818152602081815260408083206007810154825181815281850281019094019092526060938493919291828015610be1578160200160208202803883390190505b50945081604051908082528060200260200182016040528015610c0e578160200160208202803883390190505b509350600090505b81811015610cc85760078301805482908110610c2e57fe5b6000918252602090912001548551600160a060020a0390911690869083908110610c5457fe5b600160a060020a03909216602092830290910190910152600783018054600885019160009184908110610c8357fe5b6000918252602080832090910154600160a060020a031683528201929092526040019020548451859083908110610cb657fe5b60209081029091010152600101610c16565b505050915091565b6060806060806060806060600080600280549050915081604051908082528060200260200182016040528015610d10578160200160208202803883390190505b50985081604051908082528060200260200182016040528015610d3d578160200160208202803883390190505b50975081604051908082528060200260200182016040528015610d6a578160200160208202803883390190505b50965081604051908082528060200260200182016040528015610d97578160200160208202803883390190505b50955081604051908082528060200260200182016040528015610dc4578160200160208202803883390190505b50945081604051908082528060200260200182016040528015610df1578160200160208202803883390190505b50935081604051908082528060200260200182016040528015610e1e578160200160208202803883390190505b509250600090505b60025481101561105957600080600283815481101515610e4257fe5b90600052602060002001548152602001908152602001600020600401548982815181101515610e6d57fe5b6020908102909101015260028054600091829184908110610e8a57fe5b600091825260208083209091015483528201929092526040019020548851600160a060020a0390911690899083908110610ec057fe5b600160a060020a0390921660209283029091019091015260028054600091829184908110610eea57fe5b90600052602060002001548152602001908152602001600020600101548782815181101515610f1557fe5b6020908102909101015260028054600091829184908110610f3257fe5b90600052602060002001548152602001908152602001600020600201548682815181101515610f5d57fe5b6020908102909101015260028054600091829184908110610f7a57fe5b90600052602060002001548152602001908152602001600020600301548582815181101515610fa557fe5b6020908102909101015260028054600091829184908110610fc257fe5b90600052602060002001548152602001908152602001600020600501548482815181101515610fed57fe5b602090810290910101526002805460009182918490811061100a57fe5b9060005260206000200154815260200190815260200160002060060160009054906101000a900460ff16838281518110151561104257fe5b911515602092830290910190910152600101610e26565b505090919293949596565b60035481565b6060806060806060806060600060606000600160008c600160a060020a0316600160a060020a03168152602001908152602001600020805490509250826040519080825280602002602001820160405280156110d0578160200160208202803883390190505b509950826040519080825280602002602001820160405280156110fd578160200160208202803883390190505b5098508260405190808252806020026020018201604052801561112a578160200160208202803883390190505b50975082604051908082528060200260200182016040528015611157578160200160208202803883390190505b50965082604051908082528060200260200182016040528015611184578160200160208202803883390190505b509550826040519080825280602002602001820160405280156111b1578160200160208202803883390190505b509450826040519080825280602002602001820160405280156111de578160200160208202803883390190505b50600160a060020a038c166000908152600160209081526040808320805482518185028101850190935280835294985090939092909184015b828210156112f85760008481526020908190206040805161010081018252600986029092018054600160a060020a031683526001810154838501526002810154838301526003810154606084015260048101546080840152600581015460a0840152600681015460ff16151560c08401526007810180548351818702810187019094528084529394919360e0860193928301828280156112e057602002820191906000526020600020905b8154600160a060020a031681526001909101906020018083116112c2575b50505050508152505081526020019060010190611217565b505050509150600090505b8281101561148e57818181518110151561131957fe5b90602001906020020151608001518a8281518110151561133557fe5b60209081029091010152815182908290811061134d57fe5b602090810290910101515189518a908390811061136657fe5b600160a060020a03909216602092830290910190910152815182908290811061138b57fe5b906020019060200201516020015188828151811015156113a757fe5b6020908102909101015281518290829081106113bf57fe5b906020019060200201516040015187828151811015156113db57fe5b6020908102909101015281518290829081106113f357fe5b9060200190602002015160600151868281518110151561140f57fe5b60209081029091010152815182908290811061142757fe5b9060200190602002015160a00151858281518110151561144357fe5b60209081029091010152815182908290811061145b57fe5b9060200190602002015160c00151848281518110151561147757fe5b911515602092830290910190910152600101611303565b505050919395979092949650565b60606114a66117fc565b600160a060020a03871615156114bb57600080fd5b600086116114c857600080fd5b600085116114d557600080fd5b4283116114e157600080fd5b600554604080517f23b872dd000000000000000000000000000000000000000000000000000000008152600160a060020a038a81166004830152306024830152604482018a9052915191909216916323b872dd9160648083019260209291908290030181600087803b15801561155657600080fd5b505af115801561156a573d6000803e3d6000fd5b505050506040513d602081101561158057600080fd5b50506040805161010081018252600160a060020a03898116825260208083018a81528385018a8152606085018c8152608086018b815260a087018b8152600060c0890181815260e08a018d81528f83528289529a9091208951815473ffffffffffffffffffffffffffffffffffffffff191699169890981788559451600188015592516002870155905160038601555160048501555160058401555160068301805460ff1916911515919091179055925180519294508493919261164a926007850192019061184d565b505050600160a060020a0387811660009081526001602081815260408084208054808501808355918652948390208751600990960201805473ffffffffffffffffffffffffffffffffffffffff1916959096169490941785558582015192850192909255908401516002840155606084015160038401556080840151600484015560a0840151600584015560c084015160068401805460ff191691151591909117905560e0840151805192938593909261170b92600785019291019061184d565b505060028054600181810183556000929092527f405787fa12a823e0f2b7631cc41b3ba8828b3321ca811111fa75cd3aa3bb5ace01879055600380549091019055505060408051600160a060020a038916815260208101889052808201879052606081018690526080810185905290517f880c58ba9e1b0a7187c7ae28149740f9322ff4d8afed4053d4d9d0cd3aa3c4899181900360a00190a150505050505050565b600554600160a060020a031681565b6000828201838110156117cc57fe5b9392505050565b60008082848115156117e157fe5b04949350505050565b6000828211156117f657fe5b50900390565b610100604051908101604052806000600160a060020a031681526020016000815260200160008152602001600081526020016000815260200160008152602001600015158152602001606081525090565b8280548282559060005260206000209081019282156118af579160200282015b828111156118af578251825473ffffffffffffffffffffffffffffffffffffffff1916600160a060020a0390911617825560209092019160019091019061186d565b506118bb9291506118bf565b5090565b6118f091905b808211156118bb57805473ffffffffffffffffffffffffffffffffffffffff191681556001016118c5565b905600a165627a7a72305820824a463d4e317a071ee4a02cf33cc37f9f4be227a3540c11b4931d0cae048ea10029",
  "source": "pragma solidity ^0.4.25;\n\nlibrary SafeMath {\n\n  /**\n  * @dev Multiplies two numbers, throws on overflow.\n  */\n  function mul(uint256 a, uint256 b) internal pure returns (uint256) {\n    if (a == 0) {\n      return 0;\n    }\n    uint256 c = a * b;\n    assert(c / a == b);\n    return c;\n  }\n\n  /**\n  * @dev Integer division of two numbers, truncating the quotient.\n  */\n  function div(uint256 a, uint256 b) internal pure returns (uint256) {\n    // assert(b > 0); // Solidity automatically throws when dividing by 0\n    uint256 c = a / b;\n    // assert(a == b * c + a % b); // There is no case in which this doesn't hold\n    return c;\n  }\n\n  /**\n  * @dev Substracts two numbers, throws on overflow (i.e. if subtrahend is greater than minuend).\n  */\n  function sub(uint256 a, uint256 b) internal pure returns (uint256) {\n    assert(b <= a);\n    return a - b;\n  }\n\n  /**\n  * @dev Adds two numbers, throws on overflow.\n  */\n  function add(uint256 a, uint256 b) internal pure returns (uint256) {\n    uint256 c = a + b;\n    assert(c >= a);\n    return c;\n  }\n}\n\n\ncontract ERC20Basic {\n    function totalSupply() public view returns (uint256);\n    function balanceOf(address who) public view returns (uint256);\n    function transfer(address to, uint256 value) public returns (bool);\n    event Transfer(address indexed from, address indexed to, uint256 value);\n}\n\n\ncontract ERC20 is ERC20Basic {\n    function allowance(address owner, address spender) public view returns (uint256);\n    function transferFrom(address from, address to, uint256 value) public returns (bool);\n    function approve(address spender, uint256 value) public returns (bool);\n    event Approval(address indexed owner, address indexed spender, uint256 value);\n}\n\n\n/// @title Intel contract\n/// @author Sheraz\n/// @notice Intel, A contract for creating, rewarding and distributing Intels\ncontract Intel{\n    \n    using SafeMath for uint256;\n    \n    struct IntelState {\n        address intelProvider;\n        uint depositAmount;\n        uint desiredReward;\n        // total balance of Pareto tokens given for this intel\n        // including the intel providers deposit\n        uint balance;\n        uint intelID;\n        // timestamp for when rewards can be collected\n        uint rewardAfter;\n        // flag indicating whether the rewards have been collected\n        bool rewarded;\n                // stores how many Pareto tokens were given for this intel\n        // in case you want to enforce a max amount per contributor\n        address[] contributionsList;\n        mapping(address => uint) contributions;\n\n    }\n\n\n    mapping(uint => IntelState) intelDB;\n    mapping(address => IntelState[]) public IntelsByProvider;\n    uint[] intelIndexes;\n    \n    uint public intelCount;\n    \n\n    address public owner;    // Storage variable to hold the address of owner\n    \n    ERC20 public token;   // Storage variable of type ERC20 to hold Pareto token's address\n    address public ParetoAddress;\n\n    \n    constructor(address _owner) public {\n        owner = _owner;  // owner is a Pareto wallet which should be able to perform admin functions\n    }\n    \n\n    // modifier to check of the sender of transaction is the owner\n    modifier onlyOwner(){\n        require(msg.sender == owner);\n        _;\n    }\n    \n\n    event Reward( address sender, uint intelIndex, uint rewardAmount);\n    event NewIntel(address intelProvider, uint depositAmount, uint desiredReward, uint intelID, uint ttl);\n    event RewardDistributed(uint intelIndex, uint provider_amount, address provider, address distributor, uint distributor_amount);\n    event LogProxy(address destination, address account, uint amount, uint gasLimit);\n    \n\n    /// @author Sheraz\n    /// @notice this function creates an Intel\n    /// @dev Uses 'now' for timestamps.\n    /// @param intelProvider is the address of the Intel's provider\n    /// @param depositAmount is the amount of Pareto tokens deposited by provider\n    /// @param desiredReward is the amount of Pareto tokens desired by provider as reward\n    /// @param intelID is the ID of Intel which is mapped against an Intel in IntelDB as well as the database external to Ethereum\n    /// @param ttl is the time in EPOCH format until the Intel remains active and accepts rewards\n    /// requires 210769 gas in Rinkeby Network\n    function create(address intelProvider, uint depositAmount, uint desiredReward, uint intelID, uint ttl) public {\n\n        require(address(intelProvider) != address(0x0));\n        require(depositAmount > 0);\n        require(desiredReward > 0);\n        require(ttl > now);\n        \n        token.transferFrom(intelProvider, address(this), depositAmount);  // transfer token from caller to Intel contract\n        \n        address[] memory contributionsList;\n        IntelState memory newIntel = IntelState(intelProvider, depositAmount, desiredReward, depositAmount, intelID, ttl, false, contributionsList);\n        intelDB[intelID] = newIntel;\n        IntelsByProvider[intelProvider].push(newIntel);\n\n        intelIndexes.push(intelID);\n        intelCount++;\n        \n\n        emit NewIntel(intelProvider, depositAmount, desiredReward, intelID, ttl);\n        \n    }\n    \n\n    /// @author Sheraz\n    /// @notice this function sends rewards to the Intel\n    /// @dev Uses 'now' for timestamps.\n    /// @param intelIndex is the ID of the Intel to send the rewards to\n    /// @param rewardAmount is the amount of Pareto tokens the rewarder wants to reward to the Intel\n    /// @return returns true in case of successfull completion\n    /// requires 72283 gas on Rinkeby Network\n    function sendReward(uint intelIndex, uint rewardAmount) public returns(bool success){\n\n        IntelState storage intel = intelDB[intelIndex];\n        require(intel.intelProvider != address(0x0));  // make sure that Intel exists\n        require(msg.sender != intel.intelProvider); // rewarding address should not be an intel address\n        require(intel.rewardAfter > now);       //You cannot reward intel if the timestamp of the transaction is greater than rewardAfter\n        require(!intel.rewarded);  // You cannot reward intel if the intels rewards have already been distributed\n        \n\n        token.transferFrom(msg.sender, address(this), rewardAmount);  // transfer token from caller to Intel contract\n        intel.balance = intel.balance.add(rewardAmount);\n\n        if(intel.contributions[msg.sender] == 0){\n            intel.contributionsList.push(msg.sender);\n        }\n        \n        intel.contributions[msg.sender] = intel.contributions[msg.sender].add(rewardAmount);\n        \n\n        emit Reward(msg.sender, intelIndex, rewardAmount);\n\n\n        return true;\n\n    }\n    \n\n    /// @author Sheraz\n    /// @notice this function distributes rewards to the Intel provider\n    /// @dev Uses 'now' for timestamps.\n    /// @param intelIndex is the ID of the Intel to distribute tokens to\n    /// @return returns true in case of successfull completion\n    /// requires 91837 gas on Rinkeby Network\n    function distributeReward(uint intelIndex) public returns(bool success){\n\n        require(intelIndex > 0);\n        \n\n        IntelState storage intel = intelDB[intelIndex];\n        \n        require(!intel.rewarded);\n        require(now >= intel.rewardAfter);\n        \n\n        intel.rewarded = true;\n        uint distributed_amount = 0;\n\n       \n\n\n        if (intel.balance > intel.desiredReward){         // check if the Intel's balance is greater than the reward desired by Provider\n            distributed_amount = intel.desiredReward;    // tarnsfer tokens to the provider's address equal to the desired reward\n\n        } else {\n            distributed_amount = intel.balance;  // transfer token to the provider's address equal to Intel's balance\n        }\n\n        uint fee = distributed_amount.div(10);    // calculate 10% as the fee for distribution\n        distributed_amount = distributed_amount.sub(fee);   // calculate final distribution amount\n\n        token.transfer(intel.intelProvider, distributed_amount); // send Intel tokens to providers\n        token.transfer(msg.sender, fee);                     // send Intel tokens to the caller of distribute reward function\n        emit RewardDistributed(intelIndex, distributed_amount, intel.intelProvider, msg.sender, fee);\n\n\n        return true;\n\n    }\n    \n    /// @author Sheraz\n    /// @notice this function sets the address of Pareto Token\n    /// @dev only owner can call it\n    /// @param _token is the Pareto token address\n    /// requires 63767 gas on Rinkeby Network\n    function setParetoToken(address _token) public onlyOwner{\n\n        token = ERC20(_token);\n        ParetoAddress = _token;\n\n    }\n    \n\n    /// @author Sheraz\n    /// @notice this function sends back the mistankenly sent non-Pareto ERC20 tokens\n    /// @dev only owner can call it\n    /// @param destination is the contract address where the tokens were received from mistakenly\n    /// @param account is the external account's address which sent the wrong tokens\n    /// @param amount is the amount of tokens sent\n    /// @param gasLimit is the amount of gas to be sent along with external contract's transfer call\n    /// requires 27431 gas on Rinkeby Network\n    function proxy(address destination, address account, uint amount, uint gasLimit) public onlyOwner{\n\n        require(destination != ParetoAddress);    // check that the destination is not the Pareto token contract\n\n        // make the call to transfer function of the 'destination' contract\n        // if(!address(destination).call.gas(gasLimit)(bytes4(keccak256(\"transfer(address,uint256)\")),account, amount)){\n        //     revert();\n        // }\n\n\n        // ERC20(destination).transfer(account,amount);\n\n\n        bytes4  sig = bytes4(keccak256(\"transfer(address,uint256)\"));\n\n        assembly {\n            let x := mload(0x40) //Find empty storage location using \"free memory pointer\"\n        mstore(x,sig) //Place signature at begining of empty storage \n        mstore(add(x,0x04),account)\n        mstore(add(x,0x24),amount)\n\n        let success := call(      //This is the critical change (Pop the top stack value)\n                            gasLimit, //5k gas\n                            destination, //To addr\n                            0,    //No value\n                            x,    //Inputs are stored at location x\n                            0x44, //Inputs are 68 bytes long\n                            x,    //Store output over input (saves space)\n                            0x0) //Outputs are 32 bytes long\n\n        // Check return value and jump to bad destination if zero\n\t\tjumpi(0x02,iszero(success))\n\n        }\n        emit LogProxy(destination, account, amount, gasLimit);\n    }\n\n    /// @author Sheraz\n    /// @notice It's a fallback function supposed to return sent Ethers by reverting the transaction\n    function() external{\n        revert();\n    }\n\n    /// @author Sheraz\n    /// @notice this function provide the Intel based on its index\n    /// @dev it's a constant function which can be called\n    /// @param intelIndex is the ID of Intel that is to be returned from intelDB\n    function getIntel(uint intelIndex) public view returns(address intelProvider, uint depositAmount, uint desiredReward, uint balance, uint intelID, uint rewardAfter, bool rewarded) {\n        \n        IntelState storage intel = intelDB[intelIndex];\n        intelProvider = intel.intelProvider;\n        depositAmount = intel.depositAmount;\n        desiredReward = intel.desiredReward;\n        balance = intel.balance;\n        rewardAfter = intel.rewardAfter;\n        intelID = intel.intelID;\n        rewarded = intel.rewarded;\n\n    }\n\n    function getAllIntel() public view returns (uint[] intelID, address[] intelProvider, uint[] depositAmount, uint[] desiredReward, uint[] balance, uint[] rewardAfter, bool[] rewarded){\n        \n        uint length = intelIndexes.length;\n        intelID = new uint[](length);\n        intelProvider = new address[](length);\n        depositAmount = new uint[](length);\n        desiredReward = new uint[](length);\n        balance = new uint[](length);\n        rewardAfter = new uint[](length);\n        rewarded = new bool[](length);\n\n        for(uint i = 0; i < intelIndexes.length; i++){\n            intelID[i] = intelDB[intelIndexes[i]].intelID;\n            intelProvider[i] = intelDB[intelIndexes[i]].intelProvider;\n            depositAmount[i] = intelDB[intelIndexes[i]].depositAmount;\n            desiredReward[i] = intelDB[intelIndexes[i]].desiredReward;\n            balance[i] = intelDB[intelIndexes[i]].balance;\n            rewardAfter[i] = intelDB[intelIndexes[i]].rewardAfter;\n            rewarded[i] = intelDB[intelIndexes[i]].rewarded;\n        }\n    }\n\n\n      function getIntelsByProvider(address _provider) public view returns (uint[] intelID, address[] intelProvider, uint[] depositAmount, uint[] desiredReward, uint[] balance, uint[] rewardAfter, bool[] rewarded){\n        \n        uint length = IntelsByProvider[_provider].length;\n\n        intelID = new uint[](length);\n        intelProvider = new address[](length);\n        depositAmount = new uint[](length);\n        desiredReward = new uint[](length);\n        balance = new uint[](length);\n        rewardAfter = new uint[](length);\n        rewarded = new bool[](length);\n\n        IntelState[] memory intels = IntelsByProvider[_provider];\n\n        for(uint i = 0; i < length; i++){\n            intelID[i] = intels[i].intelID;\n            intelProvider[i] = intels[i].intelProvider;\n            depositAmount[i] = intels[i].depositAmount;\n            desiredReward[i] = intels[i].desiredReward;\n            balance[i] = intels[i].balance;\n            rewardAfter[i] = intels[i].rewardAfter;\n            rewarded[i] = intels[i].rewarded;\n        }\n    }\n\n    function contributionsByIntel(uint intelIndex) public view returns(address[] addresses, uint[] amounts){\n        IntelState storage intel = intelDB[intelIndex];\n                \n        uint length = intel.contributionsList.length;\n\n        addresses = new address[](length);\n        amounts = new uint[](length);\n\n        for(uint i = 0; i < length; i++){\n            addresses[i] = intel.contributionsList[i]; \n            amounts[i] = intel.contributions[intel.contributionsList[i]];       \n        }\n\n    }\n\n}\n\n\n\n\n\n\n\n\n\n\n\n\n",
  "sourcePath": "/Users/sheraz/Documents/Joel/changedIntel/latest1/ParetoNetworkServer/contracts/Intel.sol",
  "compiler": {
    "name": "solc",
    "version": "0.4.25+commit.59dbf8f1.Emscripten.clang"
  },
  "schemaVersion": "2.0.1",
  "updatedAt": "2018-09-19T16:15:13.230Z"
}