{
  "contractName": "StandardToken",
  "abi": [
    {
      "constant": true,
      "inputs": [],
      "name": "totalSupply",
      "outputs": [
        {
          "name": "",
          "type": "uint256"
        }
      ],
      "payable": false,
      "stateMutability": "view",
      "type": "function"
    },
    {
      "constant": true,
      "inputs": [
        {
          "name": "_owner",
          "type": "address"
        }
      ],
      "name": "balanceOf",
      "outputs": [
        {
          "name": "balance",
          "type": "uint256"
        }
      ],
      "payable": false,
      "stateMutability": "view",
      "type": "function"
    },
    {
      "constant": false,
      "inputs": [
        {
          "name": "_to",
          "type": "address"
        },
        {
          "name": "_value",
          "type": "uint256"
        }
      ],
      "name": "transfer",
      "outputs": [
        {
          "name": "",
          "type": "bool"
        }
      ],
      "payable": false,
      "stateMutability": "nonpayable",
      "type": "function"
    },
    {
      "anonymous": false,
      "inputs": [
        {
          "indexed": true,
          "name": "owner",
          "type": "address"
        },
        {
          "indexed": true,
          "name": "spender",
          "type": "address"
        },
        {
          "indexed": false,
          "name": "value",
          "type": "uint256"
        }
      ],
      "name": "Approval",
      "type": "event"
    },
    {
      "anonymous": false,
      "inputs": [
        {
          "indexed": true,
          "name": "from",
          "type": "address"
        },
        {
          "indexed": true,
          "name": "to",
          "type": "address"
        },
        {
          "indexed": false,
          "name": "value",
          "type": "uint256"
        }
      ],
      "name": "Transfer",
      "type": "event"
    },
    {
      "constant": false,
      "inputs": [
        {
          "name": "_from",
          "type": "address"
        },
        {
          "name": "_to",
          "type": "address"
        },
        {
          "name": "_value",
          "type": "uint256"
        }
      ],
      "name": "transferFrom",
      "outputs": [
        {
          "name": "",
          "type": "bool"
        }
      ],
      "payable": false,
      "stateMutability": "nonpayable",
      "type": "function"
    },
    {
      "constant": false,
      "inputs": [
        {
          "name": "_spender",
          "type": "address"
        },
        {
          "name": "_value",
          "type": "uint256"
        }
      ],
      "name": "approve",
      "outputs": [
        {
          "name": "",
          "type": "bool"
        }
      ],
      "payable": false,
      "stateMutability": "nonpayable",
      "type": "function"
    },
    {
      "constant": true,
      "inputs": [
        {
          "name": "_owner",
          "type": "address"
        },
        {
          "name": "_spender",
          "type": "address"
        }
      ],
      "name": "allowance",
      "outputs": [
        {
          "name": "",
          "type": "uint256"
        }
      ],
      "payable": false,
      "stateMutability": "view",
      "type": "function"
    },
    {
      "constant": false,
      "inputs": [
        {
          "name": "_spender",
          "type": "address"
        },
        {
          "name": "_addedValue",
          "type": "uint256"
        }
      ],
      "name": "increaseApproval",
      "outputs": [
        {
          "name": "",
          "type": "bool"
        }
      ],
      "payable": false,
      "stateMutability": "nonpayable",
      "type": "function"
    },
    {
      "constant": false,
      "inputs": [
        {
          "name": "_spender",
          "type": "address"
        },
        {
          "name": "_subtractedValue",
          "type": "uint256"
        }
      ],
      "name": "decreaseApproval",
      "outputs": [
        {
          "name": "",
          "type": "bool"
        }
      ],
      "payable": false,
      "stateMutability": "nonpayable",
      "type": "function"
    }
  ],
  "bytecode": "0x608060405234801561001057600080fd5b506106b6806100206000396000f30060806040526004361061008d5763ffffffff7c0100000000000000000000000000000000000000000000000000000000600035041663095ea7b3811461009257806318160ddd146100ca57806323b872dd146100f1578063661884631461011b57806370a082311461013f578063a9059cbb14610160578063d73dd62314610184578063dd62ed3e146101a8575b600080fd5b34801561009e57600080fd5b506100b6600160a060020a03600435166024356101cf565b604080519115158252519081900360200190f35b3480156100d657600080fd5b506100df610235565b60408051918252519081900360200190f35b3480156100fd57600080fd5b506100b6600160a060020a036004358116906024351660443561023b565b34801561012757600080fd5b506100b6600160a060020a03600435166024356103b2565b34801561014b57600080fd5b506100df600160a060020a03600435166104a2565b34801561016c57600080fd5b506100b6600160a060020a03600435166024356104bd565b34801561019057600080fd5b506100b6600160a060020a036004351660243561059e565b3480156101b457600080fd5b506100df600160a060020a0360043581169060243516610637565b336000818152600260209081526040808320600160a060020a038716808552908352818420869055815186815291519394909390927f8c5be1e5ebec7d5bd14f71427d1e84f3dd0314c0f7b2291e5b200ac8c7c3b925928290030190a350600192915050565b60015490565b6000600160a060020a038316151561025257600080fd5b600160a060020a03841660009081526020819052604090205482111561027757600080fd5b600160a060020a03841660009081526002602090815260408083203384529091529020548211156102a757600080fd5b600160a060020a0384166000908152602081905260409020546102d0908363ffffffff61066216565b600160a060020a038086166000908152602081905260408082209390935590851681522054610305908363ffffffff61067416565b600160a060020a03808516600090815260208181526040808320949094559187168152600282528281203382529091522054610347908363ffffffff61066216565b600160a060020a03808616600081815260026020908152604080832033845282529182902094909455805186815290519287169391927fddf252ad1be2c89b69c2b068fc378daa952ba7f163c4a11628f55a4df523b3ef929181900390910190a35060019392505050565b336000908152600260209081526040808320600160a060020a03861684529091528120548083111561040757336000908152600260209081526040808320600160a060020a038816845290915281205561043c565b610417818463ffffffff61066216565b336000908152600260209081526040808320600160a060020a03891684529091529020555b336000818152600260209081526040808320600160a060020a0389168085529083529281902054815190815290519293927f8c5be1e5ebec7d5bd14f71427d1e84f3dd0314c0f7b2291e5b200ac8c7c3b925929181900390910190a35060019392505050565b600160a060020a031660009081526020819052604090205490565b6000600160a060020a03831615156104d457600080fd5b336000908152602081905260409020548211156104f057600080fd5b33600090815260208190526040902054610510908363ffffffff61066216565b3360009081526020819052604080822092909255600160a060020a03851681522054610542908363ffffffff61067416565b600160a060020a038416600081815260208181526040918290209390935580518581529051919233927fddf252ad1be2c89b69c2b068fc378daa952ba7f163c4a11628f55a4df523b3ef9281900390910190a350600192915050565b336000908152600260209081526040808320600160a060020a03861684529091528120546105d2908363ffffffff61067416565b336000818152600260209081526040808320600160a060020a0389168085529083529281902085905580519485525191937f8c5be1e5ebec7d5bd14f71427d1e84f3dd0314c0f7b2291e5b200ac8c7c3b925929081900390910190a350600192915050565b600160a060020a03918216600090815260026020908152604080832093909416825291909152205490565b60008282111561066e57fe5b50900390565b60008282018381101561068357fe5b93925050505600a165627a7a72305820de9589ebd497faca5d586cf604de987d20b2f9d5671c87aaf28c929fe0882e7c0029",
  "source": "pragma solidity ^0.4.23;\n\n/**\n * @title SafeMath\n * @dev Math operations with safety checks that throw on error\n */\nlibrary SafeMath {\n\n  /**\n  * @dev Multiplies two numbers, throws on overflow.\n  */\n  function mul(uint256 a, uint256 b) internal pure returns (uint256) {\n    if (a == 0) {\n      return 0;\n    }\n    uint256 c = a * b;\n    assert(c / a == b);\n    return c;\n  }\n\n  /**\n  * @dev Integer division of two numbers, truncating the quotient.\n  */\n  function div(uint256 a, uint256 b) internal pure returns (uint256) {\n    // assert(b > 0); // Solidity automatically throws when dividing by 0\n    uint256 c = a / b;\n    // assert(a == b * c + a % b); // There is no case in which this doesn't hold\n    return c;\n  }\n\n  /**\n  * @dev Substracts two numbers, throws on overflow (i.e. if subtrahend is greater than minuend).\n  */\n  function sub(uint256 a, uint256 b) internal pure returns (uint256) {\n    assert(b <= a);\n    return a - b;\n  }\n\n  /**\n  * @dev Adds two numbers, throws on overflow.\n  */\n  function add(uint256 a, uint256 b) internal pure returns (uint256) {\n    uint256 c = a + b;\n    assert(c >= a);\n    return c;\n  }\n}\n\n/**\n * @title ERC20Basic\n * @dev Simpler version of ERC20 interface\n * @dev see https://github.com/ethereum/EIPs/issues/179\n */\ncontract ERC20Basic {\n  function totalSupply() public view returns (uint256);\n  function balanceOf(address who) public view returns (uint256);\n  function transfer(address to, uint256 value) public returns (bool);\n  event Transfer(address indexed from, address indexed to, uint256 value);\n}\n\n/**\n * @title Basic token\n * @dev Basic version of StandardToken, with no allowances.\n */\ncontract BasicToken is ERC20Basic {\n  using SafeMath for uint256;\n\n  mapping(address => uint256) balances;\n\n  uint256 totalSupply_;\n\n  /**\n  * @dev total number of tokens in existence\n  */\n  function totalSupply() public view returns (uint256) {\n    return totalSupply_;\n  }\n\n  /**\n  * @dev transfer token for a specified address\n  * @param _to The address to transfer to.\n  * @param _value The amount to be transferred.\n  */\n  function transfer(address _to, uint256 _value) public returns (bool) {\n    require(_to != address(0));\n    require(_value <= balances[msg.sender]);\n\n    // SafeMath.sub will throw if there is not enough balance.\n    balances[msg.sender] = balances[msg.sender].sub(_value);\n    balances[_to] = balances[_to].add(_value);\n    Transfer(msg.sender, _to, _value);\n    return true;\n  }\n\n  /**\n  * @dev Gets the balance of the specified address.\n  * @param _owner The address to query the the balance of.\n  * @return An uint256 representing the amount owned by the passed address.\n  */\n  function balanceOf(address _owner) public view returns (uint256 balance) {\n    return balances[_owner];\n  }\n\n}\n\n/**\n * @title ERC20 interface\n * @dev see https://github.com/ethereum/EIPs/issues/20\n */\ncontract ERC20 is ERC20Basic {\n  function allowance(address owner, address spender) public view returns (uint256);\n  function transferFrom(address from, address to, uint256 value) public returns (bool);\n  function approve(address spender, uint256 value) public returns (bool);\n  event Approval(address indexed owner, address indexed spender, uint256 value);\n}\n\n\n/**\n * @title Standard ERC20 token\n *\n * @dev Implementation of the basic standard token.\n * @dev https://github.com/ethereum/EIPs/issues/20\n * @dev Based on code by FirstBlood: https://github.com/Firstbloodio/token/blob/master/smart_contract/FirstBloodToken.sol\n */\ncontract StandardToken is ERC20, BasicToken {\n\n  mapping (address => mapping (address => uint256)) internal allowed;\n\n\n  /**\n   * @dev Transfer tokens from one address to another\n   * @param _from address The address which you want to send tokens from\n   * @param _to address The address which you want to transfer to\n   * @param _value uint256 the amount of tokens to be transferred\n   */\n  function transferFrom(address _from, address _to, uint256 _value) public returns (bool) {\n    require(_to != address(0));\n    require(_value <= balances[_from]);\n    require(_value <= allowed[_from][msg.sender]);\n\n    balances[_from] = balances[_from].sub(_value);\n    balances[_to] = balances[_to].add(_value);\n    allowed[_from][msg.sender] = allowed[_from][msg.sender].sub(_value);\n    Transfer(_from, _to, _value);\n    return true;\n  }\n\n  /**\n   * @dev Approve the passed address to spend the specified amount of tokens on behalf of msg.sender.\n   *\n   * Beware that changing an allowance with this method brings the risk that someone may use both the old\n   * and the new allowance by unfortunate transaction ordering. One possible solution to mitigate this\n   * race condition is to first reduce the spender's allowance to 0 and set the desired value afterwards:\n   * https://github.com/ethereum/EIPs/issues/20#issuecomment-263524729\n   * @param _spender The address which will spend the funds.\n   * @param _value The amount of tokens to be spent.\n   */\n  function approve(address _spender, uint256 _value) public returns (bool) {\n    allowed[msg.sender][_spender] = _value;\n    Approval(msg.sender, _spender, _value);\n    return true;\n  }\n\n  /**\n   * @dev Function to check the amount of tokens that an owner allowed to a spender.\n   * @param _owner address The address which owns the funds.\n   * @param _spender address The address which will spend the funds.\n   * @return A uint256 specifying the amount of tokens still available for the spender.\n   */\n  function allowance(address _owner, address _spender) public view returns (uint256) {\n    return allowed[_owner][_spender];\n  }\n\n  /**\n   * @dev Increase the amount of tokens that an owner allowed to a spender.\n   *\n   * approve should be called when allowed[_spender] == 0. To increment\n   * allowed value is better to use this function to avoid 2 calls (and wait until\n   * the first transaction is mined)\n   * From MonolithDAO Token.sol\n   * @param _spender The address which will spend the funds.\n   * @param _addedValue The amount of tokens to increase the allowance by.\n   */\n  function increaseApproval(address _spender, uint _addedValue) public returns (bool) {\n    allowed[msg.sender][_spender] = allowed[msg.sender][_spender].add(_addedValue);\n    Approval(msg.sender, _spender, allowed[msg.sender][_spender]);\n    return true;\n  }\n\n  /**\n   * @dev Decrease the amount of tokens that an owner allowed to a spender.\n   *\n   * approve should be called when allowed[_spender] == 0. To decrement\n   * allowed value is better to use this function to avoid 2 calls (and wait until\n   * the first transaction is mined)\n   * From MonolithDAO Token.sol\n   * @param _spender The address which will spend the funds.\n   * @param _subtractedValue The amount of tokens to decrease the allowance by.\n   */\n  function decreaseApproval(address _spender, uint _subtractedValue) public returns (bool) {\n    uint oldValue = allowed[msg.sender][_spender];\n    if (_subtractedValue > oldValue) {\n      allowed[msg.sender][_spender] = 0;\n    } else {\n      allowed[msg.sender][_spender] = oldValue.sub(_subtractedValue);\n    }\n    Approval(msg.sender, _spender, allowed[msg.sender][_spender]);\n    return true;\n  }\n\n}\n\n/**\n * @title Ownable\n * @dev The Ownable contract has an owner address, and provides basic authorization control\n * functions, this simplifies the implementation of \"user permissions\".\n */\ncontract Ownable {\n  address public owner;\n\n\n  event OwnershipTransferred(address indexed previousOwner, address indexed newOwner);\n\n\n  /**\n   * @dev The Ownable constructor sets the original `owner` of the contract to the sender\n   * account.\n   */\n  function Ownable() public {\n    owner = msg.sender;\n  }\n\n  /**\n   * @dev Throws if called by any account other than the owner.\n   */\n  modifier onlyOwner() {\n    require(msg.sender == owner);\n    _;\n  }\n\n  /**\n   * @dev Allows the current owner to transfer control of the contract to a newOwner.\n   * @param newOwner The address to transfer ownership to.\n   */\n  function transferOwnership(address newOwner) public onlyOwner {\n    require(newOwner != address(0));\n    OwnershipTransferred(owner, newOwner);\n    owner = newOwner;\n  }\n\n}\n\n/**\n * @title Contracts that should not own Ether\n * @author Remco Bloemen <remco@2π.com>\n * @dev This tries to block incoming ether to prevent accidental loss of Ether. Should Ether end up\n * in the contract, it will allow the owner to reclaim this ether.\n * @notice Ether can still be send to this contract by:\n * calling functions labeled `payable`\n * `selfdestruct(contract_address)`\n * mining directly to the contract address\n*/\ncontract HasNoEther is Ownable {\n\n  /**\n  * @dev Constructor that rejects incoming Ether\n  * @dev The `payable` flag is added so we can access `msg.value` without compiler warning. If we\n  * leave out payable, then Solidity will allow inheriting contracts to implement a payable\n  * constructor. By doing it this way we prevent a payable constructor from working. Alternatively\n  * we could use assembly to access msg.value.\n  */\n  function HasNoEther() public payable {\n    require(msg.value == 0);\n  }\n\n  /**\n   * @dev Disallows direct send by settings a default function without the `payable` flag.\n   */\n  function() external {\n  }\n\n  /**\n   * @dev Transfer all Ether held by the contract to the owner.\n   */\n  function reclaimEther() external onlyOwner {\n    assert(owner.send(this.balance));\n  }\n}\n\ncontract Claimable is Ownable {\n  address public pendingOwner;\n\n  /**\n   * @dev Modifier throws if called by any account other than the pendingOwner.\n   */\n  modifier onlyPendingOwner() {\n    require(msg.sender == pendingOwner);\n    _;\n  }\n\n  /**\n   * @dev Allows the current owner to set the pendingOwner address.\n   * @param newOwner The address to transfer ownership to.\n   */\n  function transferOwnership(address newOwner) onlyOwner public {\n    pendingOwner = newOwner;\n  }\n\n  /**\n   * @dev Allows the pendingOwner address to finalize the transfer.\n   */\n  function claimOwnership() onlyPendingOwner public {\n    OwnershipTransferred(owner, pendingOwner);\n    owner = pendingOwner;\n    pendingOwner = address(0);\n  }\n}\n\ncontract ParetoNetworkToken is StandardToken, HasNoEther, Claimable {\n    function ParetoNetworkToken() public {\n        owner = address(0x22741e8eE26E83AaCBf098a31DE5af1b1231920e);\n        totalSupply_ = uint256(500000000 * (10 ** decimals()));\n        balances[owner] = totalSupply_;\n        Transfer(0x00, owner, totalSupply_); \n        \n        // transfer to distribution address\n        address distributionAddress = 0xB06cEF6B14dd249f5a0977F645436cC4f4095325;\n        uint256 _value = 164506118 * (10 ** decimals());\n        balances[owner] -= _value;\n        balances[distributionAddress] += _value;\n    }\n\n    function name() public constant returns (string) {\n        return \"Pareto Network Token\";\n    }\n\n    function symbol() public constant returns (string) {\n        return \"PARETO\";\n    }\n\n    function decimals() public constant returns (uint256) {\n        return uint256(18);\n    }\n\n    function isToken() public constant returns (bool) {\n        return true;\n    }\n}",
  "sourcePath": "/Users/sheraz/Documents/Joel/rr/ParetoNetworkServer/contracts/Pareto.sol",
  "compiler": {
    "name": "solc",
    "version": "0.4.24+commit.e67f0147.Emscripten.clang"
  },
  "schemaVersion": "2.0.1",
  "updatedAt": "2018-08-07T00:51:13.868Z"
}