{
  "contractName": "Intel",
  "abi": [
    {
      "constant": true,
      "inputs": [],
      "name": "totalParetoBalance",
      "outputs": [
        {
          "name": "",
          "type": "uint256"
        }
      ],
      "payable": false,
      "stateMutability": "view",
      "type": "function"
    },
    {
      "constant": true,
      "inputs": [
        {
          "name": "",
          "type": "address"
        }
      ],
      "name": "balances",
      "outputs": [
        {
          "name": "",
          "type": "uint256"
        }
      ],
      "payable": false,
      "stateMutability": "view",
      "type": "function"
    },
    {
      "constant": true,
      "inputs": [
        {
          "name": "",
          "type": "uint256"
        }
      ],
      "name": "participants",
      "outputs": [
        {
          "name": "",
          "type": "address"
        }
      ],
      "payable": false,
      "stateMutability": "view",
      "type": "function"
    },
    {
      "constant": true,
      "inputs": [],
      "name": "owner",
      "outputs": [
        {
          "name": "",
          "type": "address"
        }
      ],
      "payable": false,
      "stateMutability": "view",
      "type": "function"
    },
    {
      "constant": true,
      "inputs": [
        {
          "name": "",
          "type": "address"
        }
      ],
      "name": "registered",
      "outputs": [
        {
          "name": "",
          "type": "bool"
        }
      ],
      "payable": false,
      "stateMutability": "view",
      "type": "function"
    },
    {
      "constant": true,
      "inputs": [],
      "name": "paretoAddress",
      "outputs": [
        {
          "name": "",
          "type": "address"
        }
      ],
      "payable": false,
      "stateMutability": "view",
      "type": "function"
    },
    {
      "constant": true,
      "inputs": [],
      "name": "intelCount",
      "outputs": [
        {
          "name": "",
          "type": "uint256"
        }
      ],
      "payable": false,
      "stateMutability": "view",
      "type": "function"
    },
    {
      "constant": true,
      "inputs": [
        {
          "name": "",
          "type": "address"
        },
        {
          "name": "",
          "type": "uint256"
        }
      ],
      "name": "intelsByProvider",
      "outputs": [
        {
          "name": "intelProvider",
          "type": "address"
        },
        {
          "name": "depositAmount",
          "type": "uint256"
        },
        {
          "name": "desiredReward",
          "type": "uint256"
        },
        {
          "name": "balance",
          "type": "uint256"
        },
        {
          "name": "intelID",
          "type": "uint256"
        },
        {
          "name": "rewardAfter",
          "type": "uint256"
        },
        {
          "name": "rewarded",
          "type": "bool"
        }
      ],
      "payable": false,
      "stateMutability": "view",
      "type": "function"
    },
    {
      "constant": true,
      "inputs": [],
      "name": "token",
      "outputs": [
        {
          "name": "",
          "type": "address"
        }
      ],
      "payable": false,
      "stateMutability": "view",
      "type": "function"
    },
    {
      "inputs": [
        {
          "name": "_owner",
          "type": "address"
        },
        {
          "name": "_token",
          "type": "address"
        }
      ],
      "payable": false,
      "stateMutability": "nonpayable",
      "type": "constructor"
    },
    {
      "payable": false,
      "stateMutability": "nonpayable",
      "type": "fallback"
    },
    {
      "anonymous": false,
      "inputs": [
        {
          "indexed": false,
          "name": "sender",
          "type": "address"
        },
        {
          "indexed": false,
          "name": "intelIndex",
          "type": "uint256"
        },
        {
          "indexed": false,
          "name": "rewardAmount",
          "type": "uint256"
        }
      ],
      "name": "Reward",
      "type": "event"
    },
    {
      "anonymous": false,
      "inputs": [
        {
          "indexed": false,
          "name": "intelProvider",
          "type": "address"
        },
        {
          "indexed": false,
          "name": "depositAmount",
          "type": "uint256"
        },
        {
          "indexed": false,
          "name": "desiredReward",
          "type": "uint256"
        },
        {
          "indexed": false,
          "name": "intelID",
          "type": "uint256"
        },
        {
          "indexed": false,
          "name": "ttl",
          "type": "uint256"
        }
      ],
      "name": "NewIntel",
      "type": "event"
    },
    {
      "anonymous": false,
      "inputs": [
        {
          "indexed": false,
          "name": "intelIndex",
          "type": "uint256"
        },
        {
          "indexed": false,
          "name": "provider_amount",
          "type": "uint256"
        },
        {
          "indexed": false,
          "name": "provider",
          "type": "address"
        },
        {
          "indexed": false,
          "name": "distributor",
          "type": "address"
        },
        {
          "indexed": false,
          "name": "distributor_amount",
          "type": "uint256"
        }
      ],
      "name": "RewardDistributed",
      "type": "event"
    },
    {
      "anonymous": false,
      "inputs": [
        {
          "indexed": false,
          "name": "destination",
          "type": "address"
        },
        {
          "indexed": false,
          "name": "account",
          "type": "address"
        },
        {
          "indexed": false,
          "name": "amount",
          "type": "uint256"
        },
        {
          "indexed": false,
          "name": "gasLimit",
          "type": "uint256"
        }
      ],
      "name": "LogProxy",
      "type": "event"
    },
    {
      "anonymous": false,
      "inputs": [
        {
          "indexed": false,
          "name": "from",
          "type": "address"
        },
        {
          "indexed": false,
          "name": "to",
          "type": "address"
        },
        {
          "indexed": false,
          "name": "amount",
          "type": "uint256"
        }
      ],
      "name": "Deposited",
      "type": "event"
    },
    {
      "constant": false,
      "inputs": [
        {
          "name": "_newOwner",
          "type": "address"
        }
      ],
      "name": "changeOwner",
      "outputs": [],
      "payable": false,
      "stateMutability": "nonpayable",
      "type": "function"
    },
    {
      "constant": false,
      "inputs": [
        {
          "name": "_address",
          "type": "address"
        },
        {
          "name": "_amount",
          "type": "uint256"
        }
      ],
      "name": "makeDeposit",
      "outputs": [],
      "payable": false,
      "stateMutability": "nonpayable",
      "type": "function"
    },
    {
      "constant": false,
      "inputs": [
        {
          "name": "intelProvider",
          "type": "address"
        },
        {
          "name": "depositAmount",
          "type": "uint256"
        },
        {
          "name": "desiredReward",
          "type": "uint256"
        },
        {
          "name": "intelID",
          "type": "uint256"
        },
        {
          "name": "ttl",
          "type": "uint256"
        }
      ],
      "name": "create",
      "outputs": [],
      "payable": false,
      "stateMutability": "nonpayable",
      "type": "function"
    },
    {
      "constant": false,
      "inputs": [
        {
          "name": "intelIndex",
          "type": "uint256"
        },
        {
          "name": "rewardAmount",
          "type": "uint256"
        }
      ],
      "name": "sendReward",
      "outputs": [
        {
          "name": "success",
          "type": "bool"
        }
      ],
      "payable": false,
      "stateMutability": "nonpayable",
      "type": "function"
    },
    {
      "constant": false,
      "inputs": [
        {
          "name": "intelIndex",
          "type": "uint256"
        }
      ],
      "name": "distributeReward",
      "outputs": [
        {
          "name": "success",
          "type": "bool"
        }
      ],
      "payable": false,
      "stateMutability": "nonpayable",
      "type": "function"
    },
    {
      "constant": true,
      "inputs": [
        {
          "name": "_address",
          "type": "address"
        }
      ],
      "name": "getParetoBalance",
      "outputs": [
        {
          "name": "",
          "type": "uint256"
        }
      ],
      "payable": false,
      "stateMutability": "view",
      "type": "function"
    },
    {
      "constant": false,
      "inputs": [
        {
          "name": "_participants",
          "type": "address[]"
        },
        {
          "name": "_amount",
          "type": "uint256"
        }
      ],
      "name": "distributeFeeRewards",
      "outputs": [],
      "payable": false,
      "stateMutability": "nonpayable",
      "type": "function"
    },
    {
      "constant": true,
      "inputs": [],
      "name": "getParticipants",
      "outputs": [
        {
          "name": "_participants",
          "type": "address[]"
        }
      ],
      "payable": false,
      "stateMutability": "view",
      "type": "function"
    },
    {
      "constant": false,
      "inputs": [
        {
          "name": "_token",
          "type": "address"
        }
      ],
      "name": "setParetoToken",
      "outputs": [],
      "payable": false,
      "stateMutability": "nonpayable",
      "type": "function"
    },
    {
      "constant": false,
      "inputs": [
        {
          "name": "destination",
          "type": "address"
        },
        {
          "name": "account",
          "type": "address"
        },
        {
          "name": "amount",
          "type": "uint256"
        },
        {
          "name": "gasLimit",
          "type": "uint256"
        }
      ],
      "name": "proxy",
      "outputs": [],
      "payable": false,
      "stateMutability": "nonpayable",
      "type": "function"
    },
    {
      "constant": true,
      "inputs": [
        {
          "name": "intelIndex",
          "type": "uint256"
        }
      ],
      "name": "getIntel",
      "outputs": [
        {
          "name": "intelProvider",
          "type": "address"
        },
        {
          "name": "depositAmount",
          "type": "uint256"
        },
        {
          "name": "desiredReward",
          "type": "uint256"
        },
        {
          "name": "balance",
          "type": "uint256"
        },
        {
          "name": "intelID",
          "type": "uint256"
        },
        {
          "name": "rewardAfter",
          "type": "uint256"
        },
        {
          "name": "rewarded",
          "type": "bool"
        }
      ],
      "payable": false,
      "stateMutability": "view",
      "type": "function"
    },
    {
      "constant": true,
      "inputs": [],
      "name": "getAllIntel",
      "outputs": [
        {
          "name": "intelID",
          "type": "uint256[]"
        },
        {
          "name": "intelProvider",
          "type": "address[]"
        },
        {
          "name": "depositAmount",
          "type": "uint256[]"
        },
        {
          "name": "desiredReward",
          "type": "uint256[]"
        },
        {
          "name": "balance",
          "type": "uint256[]"
        },
        {
          "name": "rewardAfter",
          "type": "uint256[]"
        },
        {
          "name": "rewarded",
          "type": "bool[]"
        }
      ],
      "payable": false,
      "stateMutability": "view",
      "type": "function"
    },
    {
      "constant": true,
      "inputs": [
        {
          "name": "_provider",
          "type": "address"
        }
      ],
      "name": "getIntelsByProvider",
      "outputs": [
        {
          "name": "intelID",
          "type": "uint256[]"
        },
        {
          "name": "intelProvider",
          "type": "address[]"
        },
        {
          "name": "depositAmount",
          "type": "uint256[]"
        },
        {
          "name": "desiredReward",
          "type": "uint256[]"
        },
        {
          "name": "balance",
          "type": "uint256[]"
        },
        {
          "name": "rewardAfter",
          "type": "uint256[]"
        },
        {
          "name": "rewarded",
          "type": "bool[]"
        }
      ],
      "payable": false,
      "stateMutability": "view",
      "type": "function"
    },
    {
      "constant": true,
      "inputs": [
        {
          "name": "intelIndex",
          "type": "uint256"
        }
      ],
      "name": "contributionsByIntel",
      "outputs": [
        {
          "name": "addresses",
          "type": "address[]"
        },
        {
          "name": "amounts",
          "type": "uint256[]"
        }
      ],
      "payable": false,
      "stateMutability": "view",
      "type": "function"
    }
  ],
  "bytecode": "0x608060405234801561001057600080fd5b50604051604080612bb283398101604052805160209091015160088054600160a060020a03938416600160a060020a03199182161790915560098054939092169281168317909155600a80549091169091179055612b3f806100736000396000f3006080604052600436106101325763ffffffff7c01000000000000000000000000000000000000000000000000000000006000350416630c03348d81146101445780630e0aed13146101a0578063241de9e9146101c757806327e235e3146101f657806335c1d349146102175780634ea4d0501461024b57806350e7dde21461026c5780635aa68ac01461028d57806376d438b0146102f25780638c66f294146103215780638da5cb5b14610378578063940a4e451461038d578063a6f9dae1146103a5578063ae5c37fd146103c6578063b2dd5c0714610477578063bf5d0a0014610498578063d6680a69146104bc578063d9ae9876146106c3578063db1fdb6c146106d8578063e1226970146106ed578063eb6443a314610711578063f9b6b0c414610732578063fc0c546a1461075f575b34801561013e57600080fd5b50600080fd5b34801561015057600080fd5b5061015c600435610774565b60408051600160a060020a0390981688526020880196909652868601949094526060860192909252608085015260a0840152151560c0830152519081900360e00190f35b3480156101ac57600080fd5b506101b56107bd565b60408051918252519081900360200190f35b3480156101d357600080fd5b506101f4600160a060020a03600435811690602435166044356064356107c3565b005b34801561020257600080fd5b506101b5600160a060020a0360043516610964565b34801561022357600080fd5b5061022f600435610976565b60408051600160a060020a039092168252519081900360200190f35b34801561025757600080fd5b506101b5600160a060020a036004351661099e565b34801561027857600080fd5b506101f4600160a060020a03600435166109b9565b34801561029957600080fd5b506102a2610a49565b60408051602080825283518183015283519192839290830191858101910280838360005b838110156102de5781810151838201526020016102c6565b505050509050019250505060405180910390f35b3480156102fe57600080fd5b5061030d600435602435610ae5565b604080519115158252519081900360200190f35b34801561032d57600080fd5b50604080516020600480358082013583810280860185019096528085526101f4953695939460249493850192918291850190849080828437509497505093359450610ff09350505050565b34801561038457600080fd5b5061022f6111ff565b34801561039957600080fd5b5061030d60043561120e565b3480156103b157600080fd5b506101f4600160a060020a0360043516611602565b3480156103d257600080fd5b506103de6004356116e8565b604051808060200180602001838103835285818151815260200191508051906020019060200280838360005b8381101561042257818101518382015260200161040a565b50505050905001838103825284818151815260200191508051906020019060200280838360005b83811015610461578181015183820152602001610449565b5050505090500194505050505060405180910390f35b34801561048357600080fd5b5061030d600160a060020a036004351661181a565b3480156104a457600080fd5b506101f4600160a060020a036004351660243561182f565b3480156104c857600080fd5b506104d1611acb565b604051808060200180602001806020018060200180602001806020018060200188810388528f818151815260200191508051906020019060200280838360005b83811015610529578181015183820152602001610511565b5050505090500188810387528e818151815260200191508051906020019060200280838360005b83811015610568578181015183820152602001610550565b5050505090500188810386528d818151815260200191508051906020019060200280838360005b838110156105a757818101518382015260200161058f565b5050505090500188810385528c818151815260200191508051906020019060200280838360005b838110156105e65781810151838201526020016105ce565b5050505090500188810384528b818151815260200191508051906020019060200280838360005b8381101561062557818101518382015260200161060d565b5050505090500188810383528a818151815260200191508051906020019060200280838360005b8381101561066457818101518382015260200161064c565b50505050905001888103825289818151815260200191508051906020019060200280838360005b838110156106a357818101518382015260200161068b565b505050509050019e50505050505050505050505050505060405180910390f35b3480156106cf57600080fd5b5061022f611e5f565b3480156106e457600080fd5b506101b5611e6e565b3480156106f957600080fd5b5061015c600160a060020a0360043516602435611e74565b34801561071d57600080fd5b506104d1600160a060020a0360043516611eda565b34801561073e57600080fd5b506101f4600160a060020a036004351660243560443560643560843561230c565b34801561076b57600080fd5b5061022f612987565b6000908152602081905260409020805460018201546002830154600384015460058501546004860154600690960154600160a060020a0390951696939592949193909160ff1690565b60055481565b600854600090600160a060020a0316331461082a576040805160e560020a62461bcd0281526020600482015260306024820152600080516020612af48339815191526044820152600080516020612ad4833981519152606482015290519081900360840190fd5b600a54600160a060020a03868116911614156108b6576040805160e560020a62461bcd02815260206004820152602f60248201527f50617265746f20546f6b656e2063616e6e6f742062652061737369676e65642060448201527f61732064657374696e6174696f6e2e0000000000000000000000000000000000606482015290519081900360840190fd5b50604080517f7472616e7366657228616464726573732c75696e74323536290000000000000081529051908190036019018120808252600482018590526024820184905290600081604481838a88f18015600257505060408051600160a060020a038088168252861660208201528082018590526060810184905290517ff98ef40497804f379f0a160b3381df52f48fa65759dc2c30d798bcc4d39c3d289181900360800190a15050505050565b60026020526000908152604090205481565b600480548290811061098457fe5b600091825260209091200154600160a060020a0316905081565b600160a060020a031660009081526002602052604090205490565b600854600160a060020a03163314610a1d576040805160e560020a62461bcd0281526020600482015260306024820152600080516020612af48339815191526044820152600080516020612ad4833981519152606482015290519081900360840190fd5b60098054600160a060020a03909216600160a060020a03199283168117909155600a8054909216179055565b60606000600480549050604051908082528060200260200182016040528015610a7c578160200160208202803883390190505b509150600090505b600454811015610ae1576004805482908110610a9c57fe5b6000918252602090912001548251600160a060020a0390911690839083908110610ac257fe5b600160a060020a03909216602092830290910190910152600101610a84565b5090565b600080808411610b64576040805160e560020a62461bcd028152602060048201526024808201527f496e74656c27732049442073686f756c6420626520677265617465722074686160448201527f6e20302e00000000000000000000000000000000000000000000000000000000606482015290519081900360840190fd5b60008311610be2576040805160e560020a62461bcd02815260206004820152602760248201527f52657761726420616d6f756e742073686f756c6420626520677265617465722060448201527f7468616e20302e00000000000000000000000000000000000000000000000000606482015290519081900360840190fd5b5060008381526020819052604090208054600160a060020a03161515610c78576040805160e560020a62461bcd02815260206004820152602960248201527f496e74656c20666f72207468652070726f766964656420494420646f6573206e60448201527f6f742065786973742e0000000000000000000000000000000000000000000000606482015290519081900360840190fd5b8054600160a060020a0316331415610d00576040805160e560020a62461bcd02815260206004820152603660248201527f6d73672e73656e6465722073686f756c64206e6f74206265207468652063757260448201527f72656e7420496e74656c27732070726f76696465722e00000000000000000000606482015290519081900360840190fd5b60058101544210610d5b576040805160e560020a62461bcd02815260206004820152601060248201527f496e74656c206973206578706972656400000000000000000000000000000000604482015290519081900360640190fd5b600681015460ff1615610db8576040805160e560020a62461bcd02815260206004820152601960248201527f496e74656c20697320616c726561647920726577617264656400000000000000604482015290519081900360640190fd5b336000908152600260205260409020548311610e2c5733600090815260026020526040902054610dee908463ffffffff61299616565b33600090815260026020526040808220929092553081522054610e17908463ffffffff6129a816565b30600090815260026020526040902055610f12565b600954604080517f23b872dd000000000000000000000000000000000000000000000000000000008152336004820152306024820152604481018690529051600160a060020a03909216916323b872dd916064808201926020929091908290030181600087803b158015610e9f57600080fd5b505af1158015610eb3573d6000803e3d6000fd5b505050506040513d6020811015610ec957600080fd5b505030600090815260026020526040902054610eeb908463ffffffff6129a816565b30600090815260026020526040902055600554610f0e908463ffffffff6129a816565b6005555b6003810154610f27908463ffffffff6129a816565b60038201553360009081526008820160205260409020541515610f6c5760078101805460018101825560009182526020909120018054600160a060020a031916331790555b336000908152600882016020526040902054610f8e908463ffffffff6129a816565b33600081815260088401602090815260409182902093909355805191825291810186905280820185905290517f02a6a2be713fedf52f113c0a759f1c1a23a113476d9b1b1a2a453c910660de4e9181900360600190a1600191505b5092915050565b60085460009081908190600160a060020a0316331461105b576040805160e560020a62461bcd0281526020600482015260306024820152600080516020612af48339815191526044820152600080516020612ad4833981519152606482015290519081900360840190fd5b600854600160a060020a031660009081526002602052604080822054308352908220546005540303935091505b84518210156111f85760006002600087858151811015156110a557fe5b90602001906020020151600160a060020a0316600160a060020a031681526020019081526020016000205411156111ed5761112b8361111f6002600089878151811015156110ef57fe5b6020908102909101810151600160a060020a0316825281019190915260400160002054879063ffffffff6129be16565b9063ffffffff6129e916565b90506111728160026000888681518110151561114357fe5b6020908102909101810151600160a060020a03168252810191909152604001600020549063ffffffff6129a816565b60026000878581518110151561118457fe5b6020908102909101810151600160a060020a039081168352828201939093526040918201600090812094909455600854909216835260029091529020546111d1908263ffffffff61299616565b600854600160a060020a03166000908152600260205260409020555b600190910190611088565b5050505050565b600854600160a060020a031681565b600080808080851161128f576040805160e560020a62461bcd028152602060048201526024808201527f496e74656c27732049442073686f756c6420626520677265617465722074686160448201527f6e20302e00000000000000000000000000000000000000000000000000000000606482015290519081900360840190fd5b6000858152602081905260409020600681015490935060ff16156112fd576040805160e560020a62461bcd02815260206004820152601a60248201527f496e74656c20697320616c72656164792072657761726465642e000000000000604482015290519081900360640190fd5b600583015442101561137f576040805160e560020a62461bcd02815260206004820152602b60248201527f496e74656c206e6565647320746f206265206578706972656420666f7220646960448201527f73747269627574696f6e2e000000000000000000000000000000000000000000606482015290519081900360840190fd5b60068301805460ff191660011790556003830154306000908152600260205260409020549092506113b6908363ffffffff61299616565b3060009081526002602052604081209190915560038401556113df82601963ffffffff6129e916565b90506113f1828263ffffffff61299616565b600954909250600160a060020a031663a9059cbb33600484046040518363ffffffff167c01000000000000000000000000000000000000000000000000000000000281526004018083600160a060020a0316600160a060020a0316815260200182815260200192505050602060405180830381600087803b15801561147557600080fd5b505af1158015611489573d6000803e3d6000fd5b505050506040513d602081101561149f57600080fd5b5050600854600160a060020a03166000908152600260205260409020546114c990600483046129a8565b600854600160a060020a03908116600090815260026020908152604080832094909455600954875485517fa9059cbb000000000000000000000000000000000000000000000000000000008152908516600482015260248101889052945193169363a9059cbb9360448083019491928390030190829087803b15801561154e57600080fd5b505af1158015611562573d6000803e3d6000fd5b505050506040513d602081101561157857600080fd5b5061159d905061158e83600460038502046129a8565b6005549063ffffffff61299616565b60055582546040805187815260208101859052600160a060020a039092168282015233606083015260808201839052517f0f443ebb076bf07ea019d10d84e6ead9afdde7d7e212681229aaf250710d2cd79181900360a00190a1506001949350505050565b600854600160a060020a03163314611666576040805160e560020a62461bcd0281526020600482015260306024820152600080516020612af48339815191526044820152600080516020612ad4833981519152606482015290519081900360840190fd5b600160a060020a03811615156116c6576040805160e560020a62461bcd02815260206004820152601e60248201527f4e6577206f776e65722061646472657373206973206e6f742076616c69640000604482015290519081900360640190fd5b60088054600160a060020a031916600160a060020a0392909216919091179055565b600081815260208181526040808320600781015482518181528185028101909401909252606093849391929182801561172b578160200160208202803883390190505b50945081604051908082528060200260200182016040528015611758578160200160208202803883390190505b509350600090505b81811015611812576007830180548290811061177857fe5b6000918252602090912001548551600160a060020a039091169086908390811061179e57fe5b600160a060020a039092166020928302909101909101526007830180546008850191600091849081106117cd57fe5b6000918252602080832090910154600160a060020a03168352820192909252604001902054845185908390811061180057fe5b60209081029091010152600101611760565b505050915091565b60036020526000908152604090205460ff1681565b600160a060020a038216151561188f576040805160e560020a62461bcd02815260206004820152601260248201527f4164647265737320697320696e76616c69640000000000000000000000000000604482015290519081900360640190fd5b6000811161190d576040805160e560020a62461bcd02815260206004820152602960248201527f4465706f73697420616d6f756e74206e6565647320746f20626520677265617460448201527f6572207468616e20300000000000000000000000000000000000000000000000606482015290519081900360840190fd5b600954604080517f23b872dd000000000000000000000000000000000000000000000000000000008152600160a060020a03858116600483015230602483015260448201859052915191909216916323b872dd9160648083019260209291908290030181600087803b15801561198257600080fd5b505af1158015611996573d6000803e3d6000fd5b505050506040513d60208110156119ac57600080fd5b5050600160a060020a0382166000908152600260205260409020546119d7908263ffffffff6129a816565b600160a060020a03831660009081526002602090815260408083209390935560039052205460ff161515611a69576004805460018082019092557f8a35acfbc15ff81a39ae7d344fd709f28e8600b4aa8c65c6b64bfe7fe36bd19b018054600160a060020a031916600160a060020a0385169081179091556000908152600360205260409020805460ff191690911790555b600554611a7c908263ffffffff6129a816565b60055560408051600160a060020a038416815230602082015280820183905290517f8752a472e571a816aea92eec8dae9baf628e840f4929fbcc2d155e6233ff68a79181900360600190a15050565b6060806060806060806060600080600680549050915081604051908082528060200260200182016040528015611b0b578160200160208202803883390190505b50985081604051908082528060200260200182016040528015611b38578160200160208202803883390190505b50975081604051908082528060200260200182016040528015611b65578160200160208202803883390190505b50965081604051908082528060200260200182016040528015611b92578160200160208202803883390190505b50955081604051908082528060200260200182016040528015611bbf578160200160208202803883390190505b50945081604051908082528060200260200182016040528015611bec578160200160208202803883390190505b50935081604051908082528060200260200182016040528015611c19578160200160208202803883390190505b509250600090505b600654811015611e5457600080600683815481101515611c3d57fe5b90600052602060002001548152602001908152602001600020600401548982815181101515611c6857fe5b6020908102909101015260068054600091829184908110611c8557fe5b600091825260208083209091015483528201929092526040019020548851600160a060020a0390911690899083908110611cbb57fe5b600160a060020a0390921660209283029091019091015260068054600091829184908110611ce557fe5b90600052602060002001548152602001908152602001600020600101548782815181101515611d1057fe5b6020908102909101015260068054600091829184908110611d2d57fe5b90600052602060002001548152602001908152602001600020600201548682815181101515611d5857fe5b6020908102909101015260068054600091829184908110611d7557fe5b90600052602060002001548152602001908152602001600020600301548582815181101515611da057fe5b6020908102909101015260068054600091829184908110611dbd57fe5b90600052602060002001548152602001908152602001600020600501548482815181101515611de857fe5b6020908102909101015260068054600091829184908110611e0557fe5b9060005260206000200154815260200190815260200160002060060160009054906101000a900460ff168382815181101515611e3d57fe5b911515602092830290910190910152600101611c21565b505090919293949596565b600a54600160a060020a031681565b60075481565b600160205281600052604060002081815481101515611e8f57fe5b60009182526020909120600990910201805460018201546002830154600384015460048501546005860154600690960154600160a060020a0390951697509295509093909260ff1687565b6060806060806060806060600060606000600160008c600160a060020a0316600160a060020a0316815260200190815260200160002080549050925082604051908082528060200260200182016040528015611f40578160200160208202803883390190505b50995082604051908082528060200260200182016040528015611f6d578160200160208202803883390190505b50985082604051908082528060200260200182016040528015611f9a578160200160208202803883390190505b50975082604051908082528060200260200182016040528015611fc7578160200160208202803883390190505b50965082604051908082528060200260200182016040528015611ff4578160200160208202803883390190505b50955082604051908082528060200260200182016040528015612021578160200160208202803883390190505b5094508260405190808252806020026020018201604052801561204e578160200160208202803883390190505b50600160a060020a038c166000908152600160209081526040808320805482518185028101850190935280835294985090939092909184015b828210156121685760008481526020908190206040805161010081018252600986029092018054600160a060020a031683526001810154838501526002810154838301526003810154606084015260048101546080840152600581015460a0840152600681015460ff16151560c08401526007810180548351818702810187019094528084529394919360e08601939283018282801561215057602002820191906000526020600020905b8154600160a060020a03168152600190910190602001808311612132575b50505050508152505081526020019060010190612087565b505050509150600090505b828110156122fe57818181518110151561218957fe5b90602001906020020151608001518a828151811015156121a557fe5b6020908102909101015281518290829081106121bd57fe5b602090810290910101515189518a90839081106121d657fe5b600160a060020a0390921660209283029091019091015281518290829081106121fb57fe5b9060200190602002015160200151888281518110151561221757fe5b60209081029091010152815182908290811061222f57fe5b9060200190602002015160400151878281518110151561224b57fe5b60209081029091010152815182908290811061226357fe5b9060200190602002015160600151868281518110151561227f57fe5b60209081029091010152815182908290811061229757fe5b9060200190602002015160a0015185828151811015156122b357fe5b6020908102909101015281518290829081106122cb57fe5b9060200190602002015160c0015184828151811015156122e757fe5b911515602092830290910190910152600101612173565b505050919395979092949650565b60006060612318612a00565b60008511612395576040805160e560020a62461bcd028152602060048201526024808201527f496e74656c27732049442073686f756c6420626520677265617465722074686160448201527f6e20302e00000000000000000000000000000000000000000000000000000000606482015290519081900360840190fd5b600160a060020a038816151561241b576040805160e560020a62461bcd02815260206004820152602d60248201527f496e74656c2050726f7669646572277320616464726573732070726f7669646560448201527f6420697320696e76616c69642e00000000000000000000000000000000000000606482015290519081900360840190fd5b60008711612473576040805160e560020a62461bcd02815260206004820181905260248201527f416d6f756e742073686f756c642062652067726561746572207468616e20302e604482015290519081900360640190fd5b600086116124f1576040805160e560020a62461bcd02815260206004820152602860248201527f44657369726564207265776172642073686f756c64206265206772656174657260448201527f207468616e20302e000000000000000000000000000000000000000000000000606482015290519081900360840190fd5b42841161256e576040805160e560020a62461bcd02815260206004820152603560248201527f45787069726174696f6e206461746520666f7220496e74656c2073686f756c6460448201527f2062652067726561746572207468616e206e6f772e0000000000000000000000606482015290519081900360840190fd5b60008581526020819052604090206001810154909350156125ff576040805160e560020a62461bcd02815260206004820152602960248201527f496e74656c2077697468207468652070726f766964656420494420616c72656160448201527f6479206578697374730000000000000000000000000000000000000000000000606482015290519081900360840190fd5b600160a060020a038816600090815260026020526040902054871161268e57600160a060020a038816600090815260026020526040902054612647908863ffffffff61299616565b600160a060020a038916600090815260026020526040808220929092553081522054612679908863ffffffff6129a816565b30600090815260026020526040902055612776565b600954604080517f23b872dd000000000000000000000000000000000000000000000000000000008152600160a060020a038b81166004830152306024830152604482018b9052915191909216916323b872dd9160648083019260209291908290030181600087803b15801561270357600080fd5b505af1158015612717573d6000803e3d6000fd5b505050506040513d602081101561272d57600080fd5b50503060009081526002602052604090205461274f908863ffffffff6129a816565b30600090815260026020526040902055600554612772908863ffffffff6129a816565b6005555b506040805161010081018252600160a060020a03898116825260208083018a81528385018a8152606085018c8152608086018b815260a087018b8152600060c0890181815260e08a018c81528f83528289529a90912089518154600160a060020a03191699169890981788559451600188015592516002870155905160038601555160048501555160058401555160068301805460ff1916911515919091179055925180519293849361282f9260078501920190612a51565b505050600160a060020a03888116600090815260016020818152604080842080548085018083559186529483902087516009909602018054600160a060020a031916959096169490941785558582015192850192909255908401516002840155606084015160038401556080840151600484015560a0840151600584015560c084015160068401805460ff191691151591909117905560e084015180519293859390926128e3926007850192910190612a51565b505060068054600181810183556000929092527ff652222313e28459528d920b65115c16c04f3efc82aaedc97be59f3f377c0d3f01889055600780549091019055505060408051600160a060020a038a16815260208101899052808201889052606081018790526080810186905290517f880c58ba9e1b0a7187c7ae28149740f9322ff4d8afed4053d4d9d0cd3aa3c4899181900360a00190a15050505050505050565b600954600160a060020a031681565b6000828211156129a257fe5b50900390565b6000828201838110156129b757fe5b9392505050565b6000808315156129d15760009150610fe9565b508282028284828115156129e157fe5b04146129b757fe5b60008082848115156129f757fe5b04949350505050565b610100604051908101604052806000600160a060020a031681526020016000815260200160008152602001600081526020016000815260200160008152602001600015158152602001606081525090565b828054828255906000526020600020908101928215612aa6579160200282015b82811115612aa65782518254600160a060020a031916600160a060020a03909116178255602090920191600190910190612a71565b50610ae192612ad09250905b80821115610ae1578054600160a060020a0319168155600101612ab2565b90560065206f6e6c7920746865206f776e65720000000000000000000000000000000053656e646572206f662074686973207472616e73616374696f6e2063616e2062a165627a7a723058209f094c8051f333afa91874e3f17411f05f270dfc141cadf1d65bcb25a8520c570029",
  "source": "pragma solidity ^0.4.23;\n\nlibrary SafeMath {\n\n  /**\n  * @dev Multiplies two numbers, throws on overflow.\n  */\n  function mul(uint256 a, uint256 b) internal pure returns (uint256) {\n    if (a == 0) {\n      return 0;\n    }\n    uint256 c = a * b;\n    assert(c / a == b);\n    return c;\n  }\n\n  /**\n  * @dev Integer division of two numbers, truncating the quotient.\n  */\n  function div(uint256 a, uint256 b) internal pure returns (uint256) {\n    // assert(b > 0); // Solidity automatically throws when dividing by 0\n    uint256 c = a / b;\n    // assert(a == b * c + a % b); // There is no case in which this doesn't hold\n    return c;\n  }\n\n  /**\n  * @dev Substracts two numbers, throws on overflow (i.e. if subtrahend is greater than minuend).\n  */\n  function sub(uint256 a, uint256 b) internal pure returns (uint256) {\n    assert(b <= a);\n    return a - b;\n  }\n\n  /**\n  * @dev Adds two numbers, throws on overflow.\n  */\n  function add(uint256 a, uint256 b) internal pure returns (uint256) {\n    uint256 c = a + b;\n    assert(c >= a);\n    return c;\n  }\n}\n\n\ncontract ERC20Basic {\n    function totalSupply() public view returns (uint256);\n    function balanceOf(address who) public view returns (uint256);\n    function transfer(address to, uint256 value) public returns (bool);\n    event Transfer(address indexed from, address indexed to, uint256 value);\n}\n\n\ncontract ERC20 is ERC20Basic {\n    function allowance(address owner, address spender) public view returns (uint256);\n    function transferFrom(address from, address to, uint256 value) public returns (bool);\n    function approve(address spender, uint256 value) public returns (bool);\n    event Approval(address indexed owner, address indexed spender, uint256 value);\n}\n\n\n/// @title Intel contract\n\n/// @notice Intel, A contract for creating, rewarding and distributing Intels\ncontract Intel{\n    \n    using SafeMath for uint256;\n    \n    //Struct to main the state of an Intel\n    struct IntelState {\n        address intelProvider;\n        uint depositAmount;\n        uint desiredReward;\n  \n        // total balance of Pareto tokens given for this intel including the intel providers deposit\n        uint balance;\n\n       //unique identifier \n        uint intelID;\n\n        // timestamp for when rewards can be collected\n        uint rewardAfter;\n\n        // flag indicating whether the rewards have been collected\n        bool rewarded;\n        \n        // stores how many Pareto tokens were given for this intel in case you want to enforce a max amount per contributor\n        address[] contributionsList;\n        mapping(address => uint) contributions;\n    }\n\n    // mapping for all of the Intels\n    mapping(uint => IntelState) intelDB; \n\n    // mapping of Intels by a single provider\n    mapping(address => IntelState[]) public intelsByProvider;\n    \n    // mapping for the storage of deposit amounts by addresses\n    mapping(address => uint) public balances;\n\n    // mapping for storage of addresses who have at least deposited once\n    mapping(address => bool) public registered; \n\n    // list of addresses who have had made deposited to the smart contract\n    address[] public participants;\n\n    // total Pareto token balance inside the Intel contract\n    uint public totalParetoBalance; \n\n    uint[] intelIndexes;\n    \n    // total count of Intels\n    uint public intelCount; \n    \n    // Storage variable to hold the address of the owner of the intel contract\n    address public owner;    \n    \n    // Storage variable of type ERC20 to hold Pareto Token\n    ERC20 public token;  \n\n    // Address of the Pareto Token\n    address public paretoAddress;\n\n    \n    constructor(address _owner, address _token) public {\n        // owner is a Pareto wallet which should be able to perform admin functions\n        owner = _owner; \n        token = ERC20(_token);\n        paretoAddress = _token;\n    }\n    \n\n    // modifier to check to see if  the sender of transaction is the owner\n    modifier onlyOwner(){\n        require(msg.sender == owner, \"Sender of this transaction can be only the owner\");\n        _;\n    }\n\n\n    function changeOwner(address _newOwner) public onlyOwner{\n        require(_newOwner != address(0x0), \"New owner address is not valid\");\n        owner = _newOwner;\n    }\n    \n\n    event Reward( address sender, uint intelIndex, uint rewardAmount);\n    event NewIntel(address intelProvider, uint depositAmount, uint desiredReward, uint intelID, uint ttl);\n    event RewardDistributed(uint intelIndex, uint provider_amount, address provider, address distributor, uint distributor_amount);\n    event LogProxy(address destination, address account, uint amount, uint gasLimit);\n    event Deposited(address from, address to, uint amount);\n    \n    function makeDeposit(address _address, uint _amount) public {\n        require(_address != address(0x0), \"Address is invalid\");\n        require(_amount > 0, \"Deposit amount needs to be greater than 0\");\n\n        // Transfer token from the  depositing address to the Intel smart contract\n        token.transferFrom(_address, address(this), _amount);\n\n        // Increases the balance for the depositing address in the balances map \n        balances[_address] = balances[_address].add(_amount); \n\n        // We check to see  if the user who is making the deposit is already registered\n        // If they are not registered, then we add their address to the participants array, and update \n        // the registered map address => true\n        if(!registered[_address]) {     \n            participants.push(_address);\n            registered[_address] = true;\n        }\n\n        // Add the deposited amount to the total Pareto Balance to keep track of total deposited pareto inside the smart contract\n        totalParetoBalance = totalParetoBalance.add(_amount);  \n        \n\t\t// Fire the deposited event with the from address, to address, and amount\n        emit Deposited(_address, address(this), _amount);\n    }\n    \n    /// @notice this function creates an Intel\n    /// @dev Uses 'now' for timestamps. balance[address(this)] is for allocating tokens to the Intel contract for when we subtract tokens from users address in case of creation or rewarding of Intels. we actually should add tokens to somewhere when we subtract them from users balance and the smart contracts address is being used for that.\n    /// @param intelProvider is the address of the creator\\provider of the Intel\n    /// @param depositAmount is the amount of Pareto tokens staked by the provider\n    /// @param desiredReward is the amount of Pareto tokens desired by the provider as the reward\n    /// @param intelID is the ID of Intel which is mapped against an Intel in IntelDB as well as the database external to Ethereum\n    /// @param ttl is the time in EPOCH format until the Intel remains active and accepts rewards\n    /// requires 210769 gas in Rinkeby Network\n    function create(address intelProvider, uint depositAmount, uint desiredReward, uint intelID, uint ttl) public {\n\n        require(intelID > 0, \"Intel's ID should be greater than 0.\");\n        require(address(intelProvider) != address(0x0), \"Intel Provider's address provided is invalid.\");\n        require(depositAmount > 0, \"Amount should be greater than 0.\");\n        require(desiredReward > 0, \"Desired reward should be greater than 0.\");\n        require(ttl > now, \"Expiration date for Intel should be greater than now.\");\n                \n        IntelState storage intel = intelDB[intelID];\n        require(intel.depositAmount == 0, \"Intel with the provided ID already exists\");\n\n        // First, check if the user already has deposited enough Paretos into this smart contract to satisfy the stake amount required to create the Intel\n        if(depositAmount <= balances[intelProvider]) {                      \n\n            // The user has deposited enough Pareto into this contract to create the Intel. Deduct the amount from the user's balance\n            balances[intelProvider] = balances[intelProvider].sub(depositAmount);   \n\n            // In the balances map for the address of this contract, we will maintain the amount of Pareto token used to create intel.\n            balances[address(this)] = balances[address(this)].add(depositAmount);   \n\n        } else {\n            //The user does NOT have an adequate balance to cover the creation of the intel. We will transfer the depositAmount from the user's address to the intel contract.\n            token.transferFrom(intelProvider, address(this), depositAmount);  \n\n            // In the balances map for the address of this contract, we will maintain the amount of Pareto token used to create intel. \n            balances[address(this)] = balances[address(this)].add(depositAmount); \n   \n            // Add depositAmount to the total Pareto Balance to keep track of total deposited pareto inside the smart contract\n            totalParetoBalance = totalParetoBalance.add(depositAmount);   \n        }\n\n        //For the new intel, create a contributionsList\n        address[] memory contributionsList;\n\n        //Create the new IntelState Struct\n        IntelState memory newIntel = IntelState(intelProvider, depositAmount, desiredReward, depositAmount, intelID, ttl, false, contributionsList);\n\n        //Add the IntelState to the intelDB indexed by IntelID\n        intelDB[intelID] = newIntel;\n\n        //Populate the intelsByProvider map\n        intelsByProvider[intelProvider].push(newIntel);\n\n        //maintain a separate array of IntelIDs.\n        intelIndexes.push(intelID);\n\n        //Increment the intel count\n        intelCount++;\n     \n        //Trigger a NewIntel event   \n        emit NewIntel(intelProvider, depositAmount, desiredReward, intelID, ttl);\n    }\n    \n\n    \n    /// @notice this function sends rewards to the Intel\n    /// @dev Uses 'now' for timestamps. balance[address(this)] is for allocating tokens to the Intel contract for when we subtract tokens from users address in case of creation or rewarding of Intels. we actually should add tokens to somewhere when we subtract them from users balance and the smart contracts address is being used for that.\n    /// @param intelIndex is the ID of the Intel to send the rewards to\n    /// @param rewardAmount is the amount of Pareto tokens the rewarder wants to reward to the Intel\n    /// @return returns true in case of successful completion\n    /// requires 72283 gas on Rinkeby Network\n    function sendReward(uint intelIndex, uint rewardAmount) public returns(bool success){\n\n        //Ensure we have a valid intelIndex\n        require(intelIndex > 0, \"Intel's ID should be greater than 0.\");\n\n\t\t//Ensure that the rewardAmount is greater than 0.\n        require(rewardAmount > 0, \"Reward amount should be greater than 0.\");\n\n        IntelState storage intel = intelDB[intelIndex];\n\n        // make sure that Intel exists \n        require(intel.intelProvider != address(0x0), \"Intel for the provided ID does not exist.\");\n        \n        //Ensure that the person who is performing the reward is not the IntelProvider\n        require(msg.sender != intel.intelProvider, \"msg.sender should not be the current Intel's provider.\"); \n        \n        //You cannot reward intel if the timestamp of the reward transaction is greater than rewardAfter variable of the Intel.\n        require(intel.rewardAfter > now, \"Intel is expired\");  \n\n        // You cannot reward intel if the intels rewards have already been distributed\n        require(!intel.rewarded, \"Intel is already rewarded\"); \n     \n        // Check if the user who is sending the reward already has rewardAmount worth of tokens deposited in their balance\n        if(rewardAmount <= balances[msg.sender]) {      \n            //The user who is sending reward has enough deposited tokens to make the transaction. Hence, decrease the \n            //the user's token amount from balances map by rewardAmount\n            balances[msg.sender] = balances[msg.sender].sub(rewardAmount);  \n            \n            //In the balance map for this contract address, we keep track of the total amount transacted.  This looks funny. Are we going to be double counting?\n            balances[address(this)] = balances[address(this)].add(rewardAmount); \n        } else {\n\n            //The user who is sending reward does NOT have  enough deposited tokens to make the transaction. Hence, transfer token from caller to Intel Contract\n            token.transferFrom(msg.sender, address(this), rewardAmount); \n\n            // add token amount in balances worth rewardAmount for this smart contract. This looks fishy. What are we tracking here\n            balances[address(this)] = balances[address(this)].add(rewardAmount);\n\n            // add amount to total to keep track of total deposited pareto inside the smart contract\n            totalParetoBalance = totalParetoBalance.add(rewardAmount);   \n        }\n\n        //On the intel contract, increment the balance by the rewardAmount.\n        intel.balance = intel.balance.add(rewardAmount);\n\n        //On the intel contract, add the address of the person who is sending the reward, if they don't already exist\n        if(intel.contributions[msg.sender] == 0){\n            intel.contributionsList.push(msg.sender);\n        }\n        \n        //On the intel contract, increase the contributions map with this sender address by the amount rewarded \n        intel.contributions[msg.sender] = intel.contributions[msg.sender].add(rewardAmount);\n        \n\n        //Fire the reward event\n        emit Reward(msg.sender, intelIndex, rewardAmount);\n\n\n        return true;\n    }\n    \n\n    \n    /// @notice this function distributes rewards to the Intel provider\n    /// @dev Uses 'now' for timestamps. Uses balances[address(this)] to subtract the tokens from the smart contract in balances mapping.\n    /// @param intelIndex is the ID of the Intel to distribute tokens to\n    /// @return returns true in case of successful completion\n    /// requires 91837 gas on Rinkeby Network\n    function distributeReward(uint intelIndex) public returns(bool success){\n\n        require(intelIndex > 0, \"Intel's ID should be greater than 0.\");\n        \n\n        IntelState storage intel = intelDB[intelIndex];\n        \n        require(!intel.rewarded, \"Intel is already rewarded.\");\n        require(now >= intel.rewardAfter, \"Intel needs to be expired for distribution.\");\n        \n\n        intel.rewarded = true;\n        uint distributed_amount = 0;\n\n        distributed_amount = intel.balance;\n        \n        balances[address(this)] = balances[address(this)].sub(distributed_amount);  // subtract distributed_amount worth of tokens from balances for the Intel smart contract\n        intel.balance = 0;\n\n        uint fee = distributed_amount.div(25);    // calculate 4% as the fees for distribution (X divided by 25)\n        distributed_amount = distributed_amount.sub(fee);   // calculate final distribution amount\n\n        token.transfer(msg.sender, fee / 4);  // transfer 1% fee to the distributor which is 1/4th of the total fee\n        balances[owner] = balances[owner].add(fee / 4);  // update balances with 1%, which is 1/4th of the total fee worth of distribution amount for the owner\n        token.transfer(intel.intelProvider, distributed_amount); // transfer the 96% token to the intel provider\n        totalParetoBalance = totalParetoBalance.sub(distributed_amount.add(fee * 3 / 4)); // update balances with subtraction of 96% of distributing tokens from the Intel contract\n       \n\n        emit RewardDistributed(intelIndex, distributed_amount, intel.intelProvider, msg.sender, fee);\n\n\n        return true;\n\n    }\n    \n    function getParetoBalance(address _address) public view returns(uint) {\n        return balances[_address];\n    }\n\n    function distributeFeeRewards(address[] _participants, uint _amount) public onlyOwner {\n        uint totalCirculatingAmount = totalParetoBalance - balances[address(this)] - balances[owner];\n\n        for( uint i = 0; i < _participants.length; i++) {\n            if(balances[_participants[i]] > 0) {\n                uint amountToAdd = _amount.mul(balances[_participants[i]]).div(totalCirculatingAmount);\n                balances[_participants[i]] = balances[_participants[i]].add(amountToAdd);\n                balances[owner] = balances[owner].sub(amountToAdd);\n            }\n        }\n    }\n\n    function getParticipants() public view returns(address[] memory _participants) {\n        _participants = new address[](participants.length);\n        \n        for(uint i = 0; i < participants.length; i++) {\n            _participants[i] = participants[i];\n        }\n        return;\n    }\n\n    /// @notice this function sets the address of Pareto Token\n    /// @dev only owner can call it\n    /// @param _token is the Pareto token address\n    /// requires 63767 gas on Rinkeby Network\n    function setParetoToken(address _token) public onlyOwner{\n\n        token = ERC20(_token);\n        paretoAddress = _token;\n\n    }\n    \n\n    \n    /// @notice this function sends back the mistakenly sent non-Pareto ERC20 tokens\n    /// @dev only owner can call it\n    /// @param destination is the contract address where the tokens were received from mistakenly\n    /// @param account is the external account's address which sent the wrong tokens\n    /// @param amount is the amount of tokens sent\n    /// @param gasLimit is the amount of gas to be sent along with external contract's transfer call\n    /// requires 27431 gas on Rinkeby Network\n    function proxy(address destination, address account, uint amount, uint gasLimit) public onlyOwner{\n\n        require(destination != paretoAddress, \"Pareto Token cannot be assigned as destination.\");    // check that the destination is not the Pareto token contract\n\n        // make the call to transfer function of the 'destination' contract\n        // if(!address(destination).call.gas(gasLimit)(bytes4(keccak256(\"transfer(address,uint256)\")),account, amount)){\n        //     revert();\n        // }\n\n\n        // ERC20(destination).transfer(account,amount);\n\n\n        bytes4  sig = bytes4(keccak256(\"transfer(address,uint256)\"));\n\n        assembly {\n            let x := mload(0x40) //Find empty storage location using \"free memory pointer\"\n        mstore(x,sig) //Place signature at beginning of empty storage \n        mstore(add(x,0x04),account)\n        mstore(add(x,0x24),amount)\n\n        let success := call(      //This is the critical change (Pop the top stack value)\n                            gasLimit, //5k gas\n                            destination, //To addr\n                            0,    //No value\n                            x,    //Inputs are stored at location x\n                            0x44, //Inputs are 68 bytes long\n                            x,    //Store output over input (saves space)\n                            0x0) //Outputs are 32 bytes long\n\n        // Check return value and jump to bad destination if zero\n\t\tjumpi(0x02,iszero(success))\n\n        }\n        emit LogProxy(destination, account, amount, gasLimit);\n    }\n\n    \n    /// @notice It's a fallback function supposed to return sent Ethers by reverting the transaction\n    function() external{\n        revert();\n    }\n\n    \n    /// @notice this function provide the Intel based on its index\n    /// @dev it's a constant function which can be called\n    /// @param intelIndex is the ID of Intel that is to be returned from intelDB\n    function getIntel(uint intelIndex) public view returns(address intelProvider, uint depositAmount, uint desiredReward, uint balance, uint intelID, uint rewardAfter, bool rewarded) {\n        \n        IntelState storage intel = intelDB[intelIndex];\n        intelProvider = intel.intelProvider;\n        depositAmount = intel.depositAmount;\n        desiredReward = intel.desiredReward;\n        balance = intel.balance;\n        rewardAfter = intel.rewardAfter;\n        intelID = intel.intelID;\n        rewarded = intel.rewarded;\n\n    }\n\n    function getAllIntel() public view returns (uint[] intelID, address[] intelProvider, uint[] depositAmount, uint[] desiredReward, uint[] balance, uint[] rewardAfter, bool[] rewarded){\n        \n        uint length = intelIndexes.length;\n        intelID = new uint[](length);\n        intelProvider = new address[](length);\n        depositAmount = new uint[](length);\n        desiredReward = new uint[](length);\n        balance = new uint[](length);\n        rewardAfter = new uint[](length);\n        rewarded = new bool[](length);\n\n        for(uint i = 0; i < intelIndexes.length; i++){\n            intelID[i] = intelDB[intelIndexes[i]].intelID;\n            intelProvider[i] = intelDB[intelIndexes[i]].intelProvider;\n            depositAmount[i] = intelDB[intelIndexes[i]].depositAmount;\n            desiredReward[i] = intelDB[intelIndexes[i]].desiredReward;\n            balance[i] = intelDB[intelIndexes[i]].balance;\n            rewardAfter[i] = intelDB[intelIndexes[i]].rewardAfter;\n            rewarded[i] = intelDB[intelIndexes[i]].rewarded;\n        }\n    }\n\n\n    function getIntelsByProvider(address _provider) public view returns (uint[] intelID, address[] intelProvider, uint[] depositAmount, uint[] desiredReward, uint[] balance, uint[] rewardAfter, bool[] rewarded){\n        \n        uint length = intelsByProvider[_provider].length;\n\n        intelID = new uint[](length);\n        intelProvider = new address[](length);\n        depositAmount = new uint[](length);\n        desiredReward = new uint[](length);\n        balance = new uint[](length);\n        rewardAfter = new uint[](length);\n        rewarded = new bool[](length);\n\n        IntelState[] memory intels = intelsByProvider[_provider];\n\n        for(uint i = 0; i < length; i++){\n            intelID[i] = intels[i].intelID;\n            intelProvider[i] = intels[i].intelProvider;\n            depositAmount[i] = intels[i].depositAmount;\n            desiredReward[i] = intels[i].desiredReward;\n            balance[i] = intels[i].balance;\n            rewardAfter[i] = intels[i].rewardAfter;\n            rewarded[i] = intels[i].rewarded;\n        }\n    }\n\n    function contributionsByIntel(uint intelIndex) public view returns(address[] memory addresses, uint[] memory amounts){\n        IntelState storage intel = intelDB[intelIndex];\n                \n        uint length = intel.contributionsList.length;\n\n        addresses = new address[](length);\n        amounts = new uint[](length);\n\n        for(uint i = 0; i < length; i++){\n            addresses[i] = intel.contributionsList[i]; \n            amounts[i] = intel.contributions[intel.contributionsList[i]];       \n        }\n\n    }\n\n}\n",
  "sourcePath": "/Users/ericlw/Development/Pareto Network/ParetoIntelDeploymentContract/contracts/Intel.sol",
  "compiler": {
    "name": "solc",
    "version": "0.4.25+commit.59dbf8f1.Emscripten.clang"
  },
  "schemaVersion": "2.0.1",
  "updatedAt": "2019-05-12T18:00:32.709Z"
}